:100000000C94B4060C94DC060C94DC060C94DC0610
:100010000C94DC060C94DC060C94DC060C94DC06D8
:100020000C94DC060C94DC060C94180D0C94870DD3
:100030000C94DC060C94DC060C94DC060C94DC06B8
:100040000C94DC060C94DC060C94DC060C94DC06A8
:100050000C94DC060C94DC060C94DC060C941A1050
:100060000C94DC060C94DC060C94DC060C94DC0688
:100070000C94DC060C94DC060C94DC060C94DC0678
:100080000C94B90F0C94DC060C94DC060C94DC0682
:100090000C94DC060C94DC060C94DC060C94DC0658
:1000A0000C94DC060C94DC060C94DC0600B000001A
:1000B000A170E150964F26900F1D070C0096690025
:1000C0004AE44A0048444000806810000F99FB8FC2
:1000D0009DBDBBFB77D4D4DF1F1A1AFE7F5D5DFF89
:1000E000805A0000A0A4AA0010BA3400FF5953F3AC
:1000F000FF9B9B9EFFB9B996FF9595D19FF4940FF6
:10010000FC295F91FF1838F8FF9294FFFF95D5F70F
:10011000BFB5DDD7F18F81F1F788C8F779C6467989
:1001200009FD9B090196F80082818280507162006E
:100130007756560076763700A2B77301077206002D
:100140007827500073347400775176007F55F7009C
:1001500047711000324772007364730015A2750076
:1001600061679400009F6060F4F2F6F20000000006
:10017000003E5B4F5B3E3E6B4F6B3E1C3E7C3E1C2D
:10018000183C7E3C181C577D571C1C5E7F5E1C0073
:10019000183C1800FFE7C3E7FF0018241800FFE72A
:1001A000DBE7FF30483A060E2629792926407F05ED
:1001B0000507407F05253F5A3CE73C5A7F3E1C1C03
:1001C00008081C1C3E7F14227F22145F5F005F5FC3
:1001D00006097F017F006689956A606060606094AF
:1001E000A2FFA29408047E040810207E20100808B4
:1001F0002A1C08081C2A08081E101010100C1E0CBF
:100200001E0C30383E3830060E3E0E060000000050
:100210000000005F00000007000700147F147F1437
:10022000242A7F2A1223130864623649562050007C
:1002300008070300001C2241000041221C002A1C68
:100240007F1C2A08083E0808008070300008080853
:100250000808000060600020100804023E51494573
:100260003E00427F400072494949462141494D3391
:100270001814127F1027454545393C4A49493141F8
:10028000211109073649494936464949291E0000C6
:10029000140000004034000000081422411414141B
:1002A0001414004122140802015909063E415D5907
:1002B0004E7C1211127C7F494949363E4141412210
:1002C0007F4141413E7F494949417F090909013E3A
:1002D000414151737F0808087F00417F4100204061
:1002E000413F017F081422417F404040407F021C73
:1002F000027F7F0408107F3E4141413E7F0909098A
:10030000063E4151215E7F09192946264949493255
:1003100003017F01033F4040403F1F2040201F3F1B
:100320004038403F631408146303047804036159A0
:10033000494D43007F4141410204081020004141E2
:10034000417F04020102044040404040000307088E
:100350000020545478407F2844443838444444288A
:10036000384444287F385454541800087E09021831
:10037000A4A49C787F0804047800447D40002040B9
:10038000403D007F1028440000417F40007C0478FD
:1003900004787C080404783844444438FC18242445
:1003A0001818242418FC7C080404084854545424C5
:1003B00004043F44243C4040207C1C2040201C3C42
:1003C0004030403C44281028444C9090907C446439
:1003D000544C4400083641000000770000004136CC
:1003E000080002010204023C2623263C1EA1A16152
:1003F000123A4040207A3854545559215555794184
:100400002154547841215554784020545579400C5A
:100410001E5272123955555559395454545939553B
:100420005454580000457C410002457D420001457E
:100430007C40F0292429F0F0282528F07C545545EB
:10044000002054547C547C0A097F4932494949327E
:100450003248484832324A4848303A4141217A3A93
:1004600042402078009DA0A07D39444444393D405D
:1004700040403D3C24FF2424487E4943662B2FFC0A
:100480002F2BFF0929F620C0887E090320545479B8
:10049000410000447D413048484A32384040227A89
:1004A000007A0A0A727D0D19317D2629292F282606
:1004B0002929292630484D4020380808080808080E
:1004C0000808382F10C8ACBA2F102834FA00007B67
:1004D000000008142A142222142A1408950022006D
:1004E00095AA005500AAAA55AA55AA000000FF0027
:1004F000101010FF00141414FF001010FF00FF1064
:1005000010F010F0141414FC001414F700FF000095
:10051000FF00FF1414F404FC141417101F10101F14
:10052000101F1414141F00101010F0000000001F02
:10053000101010101F10101010F010000000FF100D
:100540001010101010101010FF10000000FF140009
:1005500000FF00FF00001F10170000FC04F414143B
:100560001710171414F404F40000FF00F714141407
:1005700014141414F700F7141414171410101F1087
:100580001F141414F4141010F010F000001F101FAA
:100590000000001F14000000FC140000F010F01018
:1005A00010FF10FF141414FF141010101F0000008F
:1005B00000F010FFFFFFFFFFF0F0F0F0F0FFFFFF93
:1005C0000000000000FFFF0F0F0F0F0F38444438EA
:1005D000447C2A2A3E147E02020606027E027E0225
:1005E00063554941633844443C04407E201E200644
:1005F000027E020299A5E7A5991C2A492A1C4C7281
:1006000001724C304A4D4D303048784830BC625A07
:10061000463D3E494949007E0101017E2A2A2A2A97
:100620002A44445F444440514A444040444A514073
:100630000000FF0103E080FF000008086B6B083634
:1006400012362436060F090F0600001818000000A5
:100650001010003040FF0101001F01011E00191D94
:100660001712003C3C3C3C0000000000F0F89C8E5F
:100670008783878E9CF8F00000FEFF0303030303CB
:10068000070EFCF80000FEFF0303030303070EFC44
:10069000F80000FFFF00000000000000FFFF000066
:1006A000FEFF8383838383C7EE7C380000F8FC0E53
:1006B00007030303070EFCF800003F7FE0C08080C3
:1006C000C0E07F3FFFFF01010101010101FFFF00C9
:1006D00000FFFF0C0C0C0C1C3E77E3C100007FFFF9
:1006E000C0C0C0C0C0E0703F1F00001F3F70E0C02E
:1006F000C0C0E0703F1F00007FFFC1C1C1C1C1E3A6
:10070000773E1C00001F3F70E0C0C0C0E0703F1F7C
:10071000000000000001FFFF01000000D5F08D1473
:10072000A1C881CFD9F1AF20003C24E79999FF3CC3
:100730003C3C3CFF9999E7243C00000000006060CD
:1007400000000000000000000000000000000000A9
:1007500000000000006090906000000000000000B9
:100760000000000000000000000000609808040481
:100770000898600000000000010102020101000071
:100780000000F0980C060202060C98F00000000130
:100790000306040406030100000000609808040436
:1007A0000898600000000000010102020101000041
:1007B0000000000060900808906000000000000049
:1007C00000000101000000000000F0980C66929209
:1007D000660C98F000000001030604040603010003
:1007E0000000F0980C066262060C98F00000000110
:1007F00003060404060301000000F0980C06020240
:10080000060C98F000000001030604040603010032
:1008100000000060980804040898600000000000D0
:1008200001010202010100000000000060900808C0
:1008300090600000000000000000010100000000C6
:1008400000000000006090906000000000000000C8
:1008500000000000000000000000000000006060D8
:100860000000000000000000000000000000000088
:100870000093027D0000007D000B027D004A017D97
:100880000000007D000601F4010080B8014B0088E3
:10089000014B005D014B00008018387C32723C38FF
:1008A0001818383C72327C38181F004B001F004B60
:1008B000001F004B0000800000141E0C1E1E1E1E98
:1008C0001E1C1C080000000A1E0C1E1E1E1E1E1CE4
:1008D0001C08005D01640088016400EE0164004BA7
:1008E0000264001003C80000807EC3B99595B9C3A7
:1008F0007E00000008000000000000000000000072
:1009000000000000002000000000000000000000C7
:1009100000000000000000000010000000000000C7
:100920000000000000004000000000000000000087
:100930000000008000000000000010000000000027
:100940000000000000000000000020000000000087
:100950000000000080000000000200000000000015
:1009600000040000000000800000000020000000E3
:100970000000000000004000000000000200000035
:100980000000001000400000000200000000000015
:1009900000000008000000000000008000000000CF
:1009A00000001000000000000000800000000010A7
:1009B000000000000000000000080000000000002F
:1009C0000000000000000200000000000000000025
:1009D0000000000000000000000000000100000016
:1009E0000000200000000000000000008000000067
:1009F00000000000000000000000000000400000B7
:100A000000000000000000000400000000000000E2
:100A100000000400000000000000000000000000D2
:100A20002000000000000000000000000000004066
:100A30000000000000200000000000000000010095
:100A40000000000010000000000000000000000195
:100A50000000000000100002000000200000000064
:100A600000000000004000000000000000008000C6
:100A700000000000000008000000000080000000EE
:100A80000000000000010000001000000000000253
:100A900000000000008000000000000000000000D6
:100AA00000000000000000000000800000000000C6
:100AB00000000000000000000040000000000000F6
:100AC0000200000000000000020000000000002002
:100AD0000000000000008000000000000000000096
:100AE00000000000000000000020000000000000E6
:100AF00000000000000000000040000000000000B6
:100B000000000000000000000000000000080000DD
:100B100000000000000000000000000000000000D5
:100B200001000000000000000000000000000000C4
:100B300000000000000000000000000000000000B5
:100B40000000000200000000004000000000000063
:100B50000000000000000040000000000000000055
:100B60000100000000008000000000000000000004
:100B70000000000000002000000000000000000055
:100B80000000000002000000000000000000000063
:100B9000040000000000020000000000000000202F
:100BA00000000000000002000080000000000000C3
:100BB0000000000001000000000000000020000014
:100BC0000000000000000000000020000000000005
:100BD000000400000000000000000000040000000D
:100BE0000000000080000000000000000000010084
:100BF00000000000000000000000000000000000F5
:100C000004000000000000000000001000000000D0
:100C10000000000010000000000000004000000084
:100C200000000000000000000000000000000008BC
:100C30000000000000000000004000000000000074
:100C40000000000100000000000020000000000083
:100C50008000000000000200000000000000000012
:100C60000000000000000000000000020000000082
:100C7000000000000000000800000000000000006C
:100C80000000040000000000000000000000000060
:100C90000000002000000000000000000000000034
:100CA0000000000001000000000000000000000043
:100CB00000080000000000000000000040000000EC
:100CC0000000000001000000000000000000000023
:100CD0000000000000000000000000000400000010
:100CE00000000000000000200000020000000000E2
:100CF00000080B00020202000009040000010202C9
:100D0000000005240010010524010101042402064D
:100D100005240600010705810310004009040100B5
:100D2000020A0000000705020240000007058302D6
:100D30004000000403090412010002EF02014041D7
:100D400023368000010102030141726475696E6FF0
:100D5000204C4C430041726475696E6F204C656F86
:100D60006E6172646F00971011241FBECFEFDAE03E
:100D7000DEBFCDBF11E0A0E0B1E0EAE1F7E302C0E1
:100D800005900D92AE38B107D9F727E0AEE8B1E093
:100D900001C01D92A030B207E1F716E0C4EBD6E027
:100DA00004C02197FE010E94851BC33BD107C9F7F0
:100DB0000E94E7100C948B1B0C94000080919F0103
:100DC00008954F925F926F927F928F929F92AF920F
:100DD000BF92CF92DF92EF92FF920F931F93CF9328
:100DE000DF9330E0F901E80FF91F1E161F060CF023
:100DF000A0C0803891050CF09CC0FB01E00FF11DF4
:100E00001E161F060CF095C0603471050CF091C0E1
:100E1000DB0177FF04C0AA27BB27A61BB70BA7706F
:100E2000BB27FB0177FD3796C3E0F595E795CA959B
:100E3000E1F777FF07C0319768E070E0EB01CA1B6C
:100E4000DB0BDE01802E869486948694912C0770AD
:100E500019F0DFEF8D1A9D0ABF018A01AF01569587
:100E6000542F442757954795480F591F49515D4FB7
:100E7000860E971EE8E0F0E03F016A1A7B0A8616AC
:100E8000970609F456C06830710509F452C06F3FE7
:100E9000EFEF7E070CF443C07C01D0E0C0E05A01C4
:100EA000E0E8AE0EB11CF7FC2EC06F3F760709F4E8
:100EB0003DC0FE01E00FF11FE4916A01CC0EDD1E82
:100EC000F0E02F010A2E01C0440C0A94EAF7F60163
:100ED0005080452840821097B1F06730710599F035
:100EE000F801EC0FFD1FE4916501CC0EDD1EF0E072
:100EF0002F01062C02C0559447940A94E2F7F6019C
:100F00005080452840822196FFEFEF1AFF0AC21752
:100F1000D3072CF4F0E8EF16F10409F0C4CF6F5FAB
:100F20007F4F020F131F40585F4FA9CF1097C1F694
:100F3000EACFDF91CF911F910F91FF90EF90DF905B
:100F4000CF90BF90AF909F908F907F906F905F9069
:100F50004F900895E7EEF2E0A0E0B8E000800EBC0C
:100F60008111012C1197A0FDFDCF0192B9F70DB4AD
:100F70000895FC0180918602882311F13FB7F8940F
:100F800082E08093E9002091F200822F90E0181611
:100F9000190614F481E090E0882339F0289844E69B
:100FA000409385024091F1004083222339F0209143
:100FB000F200211103C02BE62093E8003FBF089503
:100FC0008FEF9FEF08952FB7F89483E08093E900A7
:100FD0009091E800892F807295FF04C09091F200F3
:100FE00080E4891B2FBF089580917D0281110DC07F
:100FF00082E08093790284E080937A0210927C02EE
:1010000010927B0281E080937D0289E792E008954F
:10101000CF93DF931F92CDB7DEB76983DC01ED91EB
:10102000FC910280F381E02D41E050E0BE016F5F52
:101030007F4F09950F90DF91CF91089583E08093C2
:10104000E9008091F200882319F08AE38093E80098
:1010500008950E94E30790E00895CF93DF931F92D5
:10106000CDB7DEB7FC018485958597FD08C02FEFCD
:101070003FEF358724870F90DF91CF910895CE0100
:1010800001960E94B907019719F4898190E0F3CF86
:101090008FEF9FEFF0CF0F931F93CF93DF931F92AC
:1010A000CDB7DEB78C01FC018485958597FF0BC019
:1010B000CE0101960E94B907019771F4898190E0F1
:1010C000F80195878487F801848595850F90DF91D5
:1010D000CF911F910F9108958FEF9FEFF1CFFC01FA
:1010E0008485958597FD0BC09FB7F89482E0809327
:1010F000E9008091F2009FBF90E0019608959FB7AC
:10110000F89482E08093E9008091F2009FBF90E024
:1011100008954091730250917402209171023091B0
:10112000720242175307B4F49091E8009570E1F30E
:101130009091E80092FD19C08093F10080917302B4
:101140009091740201968F739927892B19F48EEF71
:101150008093E800809173029091740201969093BD
:1011600074028093730281E0089580E00895DF9215
:10117000EF92FF920F931F93CF93DF93D82E8A01A4
:10118000EB017B01E40EF51ECE15DF0559F0D7FE0D
:1011900012C0FE0184910E94890821968111F4CF2A
:1011A0000FEF1FEFC801DF91CF911F910F91FF90BB
:1011B000EF90DF9008958881EECF0F931F93CF9328
:1011C000DF931F92CDB7DEB782E0898342E450E01F
:1011D00061EF7CE080E80E94B7080E94F407DC0120
:1011E00012960D911C910115110589F0D801ED9110
:1011F000FC910280F381E02DBE016F5F7F4FC8013B
:10120000099597FD04C0F80100851185ECCF89810F
:101210000F90DF91CF911F910F910895615030F0A1
:101220002091F100FC0120830196F8CF289884E6F4
:10123000809385020895AF92BF92CF92DF92EF9292
:10124000FF920F931F93CF93DF936C017B018B0170
:10125000040F151FEB015E01AE18BF08C017D107C0
:1012600059F06991D601ED91FC910190F081E02D4A
:10127000C6010995892B79F7C501DF91CF911F919F
:101280000F91FF90EF90DF90CF90BF90AF900895B7
:101290002091AB01E091A901F091AA01CF01029642
:1012A0009093AA018093A901222319F0859194912A
:1012B0000895808191810895CF92DF92EF92FF92FD
:1012C000CF93DF930E944809811520E8920791F49B
:1012D000809171008D7F80937100109291004698EB
:1012E000479810929801DF91CF91FF90EF90DF9097
:1012F000CF90089521E020939801813020E8920753
:1013000051F48091A7019091A8019093AA01809334
:10131000A9010E94480997FD05C020919701222349
:1013200009F454C020919601211150C021E020936E
:101330009901EC01DF77209709F04BC081E08093A1
:101340009A0146983FE9C32E3FE0D32EE12CF12CC1
:10135000CAEFD0E0E091E502F091E6020995811133
:1013600003C081E080939A0180919901882329F03C
:1013700080919A01882309F43FC047980E94480948
:101380000097F1F19C01DE010E944E1BDC01CB01B4
:1013900029E0B595A795979587952A95D1F710924D
:1013A00090002AE020939100D0929900C09298007A
:1013B00080939B0190939C01A0939D01B0939E010B
:1013C000809171008260809371008DCF109299019D
:1013D000B0CF9E0150E040E060E472E48FE090E026
:1013E0000E94FA1A69017A0181E0C81AD108E1085D
:1013F000F10810929A01AECF4699BFCF479ABECF5F
:101400008FEF9FEFDC01CBCF9C01E1E7F0E0908113
:101410009D7F908381E08093AB013093AA0120935C
:10142000A9013093A8012093A7010C945C092D9A7F
:1014300008958FB18095807F669B88601C9B846037
:101440000895AF92BF92CF92DF92EF92FF920F93E7
:101450001F93CF93DF936D3079F0C091AE01D0919F
:10146000AF016A30B1F41092AD011092AC01289630
:10147000D093AF01C093AE0181E090E0DF91CF91B6
:101480001F910F91FF90EF90DF90CF90BF90AF90A2
:1014900008954091AC015091AD0185E0689FF00145
:1014A0001124E459FE4F9A01C12C80E1E82EA5E0F9
:1014B00070E0CA1621F0CF0101967491FC0110E092
:1014C00000E0B72FB170DB2E20383105D0F4CE010B
:1014D000800F911F80349105A0F461E081FD64E0EC
:1014E00080FD660F82FD6295887FE89ED001112401
:1014F000A20FF62EA951BD4F8C91DD20A9F0862BAD
:101500008C9376950F5F1F4F08301105D1F6C39469
:101510002F5F3F4F86E0C812CACF4A5F5F4F50939C
:10152000AD014093AC01A8CFF0948F21E9CF909109
:101530009501982329F490919401982381E009F46E
:1015400080E0089580919401809395010E94190A8A
:1015500080939401089580E00C94AA07E7EEF2E0EE
:1015600081118FEF00248193819381938193039460
:10157000D1F708953FB7F89480919001909191012F
:10158000A0919201B091930126B5A89B05C02F3F71
:1015900019F00196A11DB11D3FBFBA2FA92F982F99
:1015A0008827BC01CD01620F711D811D911D42E094
:1015B000660F771F881F991F4A95D1F708958F925C
:1015C0009F92AF92BF92CF92DF92EF92FF926B0108
:1015D0007C010E94BA0A4B015C01C114D104E104F0
:1015E000F104B9F00E94BA0A681979098A099B09BD
:1015F000683E73408105910580F321E0C21AD1084D
:10160000E108F10888EE880E83E0981EA11CB11C49
:10161000E4CFFF90EF90DF90CF90BF90AF909F907E
:101620008F9008958F929F92AF92BF92CF92DF9248
:10163000EF92FF920F931F93CF93DF936C017B0187
:101640008A0180911201882309F45CC0809186028E
:10165000882309F457C08091780280FF05C08091EB
:10166000E00082608093E000E801B12C8AEFA82EB0
:1016700093E0892E2AE3922E209711F4BB20D9F112
:101680000E94E30781110AC0AA94AA20D9F161E05F
:1016900070E080E090E00E94DF0AEECF8C171D061C
:1016A00011F00CF08C2F9FB7F8948092E9002091F4
:1016B000E80025FD02C09FBFDFCF282F30E0C21B0E
:1016C000D30BF701815020F041914093F100FACF04
:1016D000E20EF31EBB2021F09092E800B12CEBCF7C
:1016E0008091E80085FDE7CF9092E800BB24B39499
:1016F000209709F3F3CF5D9884E680937702101664
:1017000011063CF081E090E0F6019383828310E0C3
:1017100000E0C801DF91CF911F910F91FF90EF90F2
:10172000DF90CF90BF90AF909F908F900895BC01B5
:1017300090E080E00C94DF0A6F927F928F929F92EC
:10174000AF92BF92CF92DF92EF92FF920F931F93CF
:10175000CF93DF934C017B01C22F102F98E0A92E6D
:10176000B12C642E669466946694712CCA018770BD
:101770009927892B79F5D40117962D913C91C701B2
:101780009927B9010E94711B269DF001279DF00D3C
:10179000369DF00D11248E0F9F1FD4011596ED91EB
:1017A000FC91E80FF91F2081111112C0C095C223CE
:1017B000C083DF91CF911F910F91FF90EF90DF9049
:1017C000CF90BF90AF909F908F907F906F90089533
:1017D000C22BEECFD0E04770C42ED12C83E0660C34
:1017E000771C8A95E1F79E0101C0220F4A95EAF71E
:1017F000012FA301B701C4010E949C0BA301485F04
:101800005F4FC5018C199D0902C0D595C7958A9572
:10181000E2F7A7CF5F926F927F928F929F92AF92E3
:10182000BF92CF92DF92EF92FF920F931F93CF93CD
:10183000DF93EC016A30F1F48D859E859C878B8760
:101840008C892F853889820F932F911D988B8F87D4
:1018500081E090E0DF91CF911F910F91FF90EF9089
:10186000DF90CF90BF90AF909F908F907F906F90C0
:101870005F900895AB84BC84693031F429E0A20EF6
:10188000B11CBC86AB86E4CF3DEFA3163FEFB30699
:101890000CF45DC08F819885A816B9060CF057C06E
:1018A000CF84D8888DEFC8168FEFD8060CF44FC0C0
:1018B00089859A85C816D9060CF049C0603208F4AB
:1018C0006FE780EE860F9FE9960F9A3118F49FEF2D
:1018D000C91AD90A8C3011F08B3119F42FEFC21AC2
:1018E000D20A869534E0839FC00111249C012455BF
:1018F0003F4F7901912C812C162F1170F701E80DC3
:10190000F91D549011112DC0352D3F70532E350106
:10191000680C791C8C81882361F001E089899A899F
:10192000892B09F000E02FE0A601B301CE010E944F
:101930009C0B0989252DA601B301CE010E949C0BA9
:101940008FEF881A980A94E089169104B9F68B896A
:1019500090E004962B853C85820F931F9C878B8794
:1019600077CF52948FE05822D2CF089590E080E054
:101970000895FB0101900020E9F73197AF01461B64
:10198000570BDC01ED91FC910280F381E02D09946D
:101990008F929F92AF92BF920F931F93CF93DF933B
:1019A000CDB7DEB7A1970FB6F894DEBF0FBECDBF9F
:1019B00019A2423008F44AE08E010F5D1F4F842EB9
:1019C000912CB12CA12CA50194010E942C1BE62F77
:1019D000B901CA01EA3044F5E05DD801EE938D010A
:1019E000232B242B252B79F790E080E0109769F0CA
:1019F000FD0101900020E9F73197AF014A1B5B0B15
:101A0000BD0187EE96E00E941B09A1960FB6F894DF
:101A1000DEBF0FBECDBFDF91CF911F910F91BF9061
:101A2000AF909F908F900895E95CD7CF0C94E41A03
:101A30001F920F920FB60F9211248F939F93809154
:101A4000E1009091E100937F9093E10083FF0FC04C
:101A50001092E90091E09093EB001092EC0092E379
:101A60009093ED001092860298E09093F00082FF30
:101A700022C093E09093E9009091F200992319F02D
:101A80009AE39093E80090917702992341F0909126
:101A90007702915090937702911101C05D9A9091D5
:101AA0008502992341F0909185029150909385028F
:101AB000911101C0289A84FF18C08091E2008E7EA7
:101AC00081608093E2008091E1008F7E8093E1004D
:101AD000809178028E7E8061809378029F918F91B1
:101AE0000F900FBE0F901F90189580FFF7CF809139
:101AF000E2008E7E80618093E2008091E1008E7E24
:101B00008093E100809178028E7E8160E5CF1F9204
:101B10000F920FB60F921124CF92DF92EF92FF92A5
:101B20000F931F932F933F934F935F936F937F93E5
:101B30008F939F93AF93BF93EF93FF93CF93DF93D5
:101B4000CDB7DEB76C97DEBFCDBF1092E9008091B4
:101B5000E80083FF25C068E0CE0145960E940E098B
:101B600082EF8093E8008D8987FF39C09091E8006B
:101B700090FFFCCF982F907609F034C19E894F8951
:101B8000588D2F89F88C911131C0803861F5809182
:101B900076028093F1001092F1008EEF8093E800BE
:101BA0006C960FB6F894DEBF0FBECDBFDF91CF911C
:101BB000FF91EF91BF91AF919F918F917F916F9125
:101BC0005F914F913F912F911F910F91FF90EF9057
:101BD000DF90CF900F900FBE0F901F9018959EEF43
:101BE0009093E800C7CF1092F100D5CF913059F40F
:101BF0008111D3CF4130510581F6809176028D7FDE
:101C000080937602CACF933049F48111C6CF413018
:101C1000510519F6809176028260F2CF953041F439
:101C20008091E80080FFFCCF20682093E300B5CFCF
:101C3000963009F0A9C00B8D1C8D22E01092E900AE
:101C40001092740210927302F2122EC0109272025D
:101C5000109271020E94DD081F8299E09983FA8236
:101C600091E09E8390EA98879AEF9987209173027A
:101C700030917402275F3F4F3C832B838D831092FA
:101C8000E900109274021092730210937202009392
:101C9000710249E050E0BE016F5F7F4F80E00E941B
:101CA000B7080E94DD0879CF109372020093710289
:101CB0000E94F407DC0112960D911C91011511058B
:101CC00009F451C1D801ED91FC910480F581E02D1A
:101CD000BE016B5E7F4FC8010995009709F03EC1B8
:101CE000F80100851185EACFF3E0FF120EC08F895D
:101CF000882309F440C0823061F440E860E185E562
:101D00009DE00E946410811148CF81E28093EB0036
:101D100047CF813029F440E86BE089E49DE0F1CFC2
:101D2000833099F70E94F407DC011296ED90FC9045
:101D30008E010F5F1F4F6801E114F10479F0D701A4
:101D4000ED91FC910680F781E02DB801C70109955E
:101D5000080F111DF701E084F184EECFD8011C9229
:101D6000F60101900020E9F73197BF016C197D0958
:101D700040E0C601C6CF63E37DE0FB01449150E043
:101D800080E80E94B70809CF973009F4BECF983099
:101D900021F481E08093F10000CF993009F0FDCE6D
:101DA000837009F0B2CFE8E1F1E081E031E096E341
:101DB0002191222371F08093E9003093EB00DF0141
:101DC00011972C912093EC009093ED008F5F87305A
:101DD00079F78EE78093EA001092EA008F8980936A
:101DE0008602DBCE8B8D9C8D1092E90010927402DE
:101DF000109273029093720280937102898D811107
:101E000092C08E899D89913A49F4813209F07DCF43
:101E100047E050E06BE071E080E0B3CF913209F031
:101E200074CF833269F48F89988DB0E0A0E08093FD
:101E3000070190930801A0930901B0930A01ADCE68
:101E4000803269F48091E80082FFFCCF67E08BE08C
:101E500091E00E940E098BEF8093E8009ECE8232C3
:101E600009F09BCE8F8980931201EEEFFFE78591F9
:101E700094918B3F9C4D51F1E0E0F8E080910B0193
:101E800090910C01A0910D01B0910E01803B944006
:101E9000A105B105F1F48091120180FD1AC0EE3F59
:101EA0008AE0F80789F587E797E791838083809137
:101EB00060008093750288E19BE00FB6F894A895C6
:101EC000809360000FBE9093600067CEEEEFFAE063
:101ED000D5CF808191818737974709F05ECEA8954D
:101EE000809160008861809360008091750280938A
:101EF0006000EE3F2AE0F20789F08091FE0A90919F
:101F0000FF0A9183808349CE80819181873798072A
:101F100051F29093FF0A8093FE0AC5CF1092FF0AF8
:101F20001092FE0A3ACE0E94F407DC0112960D913F
:101F30001C910115110509F4E8CED801ED91FC9131
:101F40000190F081E02DBE016B5E7F4FC8010995C5
:101F5000811123CEF80100851185EBCF18161906E3
:101F60000CF41BCED2CEF1E0FF12BECE67E37DE0D3
:101F700004CF1F920F920FB60F9211242F933F930D
:101F80004F935F936F937F938F939F93AF93BF9381
:101F9000EF93FF9380919B0190919C01A0919D01F3
:101FA000B0919E01892B8A2B8B2B09F440C0809124
:101FB0009A0181110BC088B190E4892788B980917A
:101FC0009901882319F088B1805888B980919B01C4
:101FD00090919C01A0919D01B0919E011816190647
:101FE0001A061B069CF480919B0190919C01A09184
:101FF0009D01B0919E010197A109B10980939B01B8
:1020000090939C01A0939D01B0939E01FF91EF914D
:10201000BF91AF919F918F917F916F915F914F9100
:102020003F912F910F900FBE0F901F9018950E9417
:102030005C09ECCF0F920FB68F939F93EF93FF93B2
:1020400080918F018D5F8D3708F08D5780938F01C0
:10205000E0EAF1E080818E4F808391819F4F9183F0
:1020600082818F4F828383818F4F8383E0E9F1E008
:1020700080818F5F808381818F4F818382818F4FA9
:10208000828383818F4F83838FB18F6066991C9B7E
:1020900088278F3681F480918E01981B963068F0E6
:1020A000E0E0F8E087E78083818388E18093600047
:1020B000F0936000FFCF90938E01FF91EF919F917D
:1020C0008F910FBE0F901895EF92FF920F931F9371
:1020D000CF93DF93F82E192FE62E042F81E0860F81
:1020E000880F0E94890883E00E948908CF2DD12F94
:1020F000EC0EFD2EF11CCE15DF05B9F007FF13C065
:10210000FE0184910E948908182F80E00E948908AE
:10211000812321968111EFCFDF91CF911F910F91F4
:10212000FF90EF9008958881EDCF81E0F5CFE7E84B
:10213000F2E01382128288EE93E0A0E0B0E08483A4
:102140009583A683B78382E291E0918380838FEFAA
:102150009FEF95878487ECEFF6E01382128280E48C
:1021600091E0918380838EED96E09093E6028093D8
:10217000E50280E090E89093E4028093E3024698C1
:102180003E9A47983F9AE7EEF6E01382128284E384
:1021900091E09183808387EE92E09683858380E847
:1021A00090E09087878380E490E09287818785E044
:1021B000848B81E0838B16861586108A1786148699
:1021C000138681E090E0928B818B1482089578943D
:1021D00084B5826084BD84B5816084BD85B582602C
:1021E00085BD85B5816085BD80916E0081608093DD
:1021F0006E00109281008091810082608093810046
:102200008091810081608093810080918000816055
:1022100080938000809191008260809391008091F2
:102220009100816080939100809190008160809303
:1022300090008091C10084608093C1008091C100B2
:1022400082608093C1008091C10081608093C10051
:102250008091C30081608093C3008091C000826040
:102260008093C0008091C20081608093C200809101
:102270007A00846080937A0080917A0082608093F3
:102280007A0080917A00816080937A0080917A0050
:10229000806880937A0010928602109276021092E3
:1022A00078028091D70081608093D70080EA809384
:1022B000D80089B5806189BD89B5826089BD09B4BE
:1022C00000FEFDCF61E070E080E090E00E94DF0A58
:1022D0008091D8008F7C80618093D8008091E0004D
:1022E000807F8093E0008091E1008E7E8093E1000A
:1022F0008DE08093E200559A209A81EC80937C00D7
:1023000085B1806F85B984B1877E84B984B1876EC9
:1023100084B95E9A5F988AB1806D8AB9769A6E9810
:1023200081B3806F81BB899880B38D7080BB80E55D
:102330008CBD81E08DBD85E090E00E94970B5F9A97
:1023400085E090E00E94970B5E985C98ECE1F7E0E6
:1023500084918EBD00000DB407FEFDCF319627E0BD
:10236000E932F207A9F75C9A81E8809364008091D2
:1023700065008160809365000E94AB0A0E94190A83
:1023800087FF15C05C9885EA8EBD00000DB407FE7E
:10239000FDCF5C9A2E982F982D98809164008062D2
:1023A0008093640081E083BF889513BEFCCF0E94B8
:1023B000190A82FF48C02D980E94190A847884382F
:1023C000E1F40E94170A88EC90E00E94970B2F9886
:1023D00082E090E00E94E41A8F3F29F06FEF82E0E4
:1023E00090E00E94EC1A84EF91E00E94970B2F9AE4
:1023F0000E94190A84788438D9F30E94190A8471DA
:102400008431E1F40E94170A88EC90E00E94970B57
:102410002E9882E090E00E94E41A882329F060E080
:1024200082E090E00E94EC1A84EF91E00E94970B0A
:102430002E9A0E94190A84718431D9F388EC90E0B5
:102440000E94970BB4CF0E94170A82E090E00E948E
:10245000160D882309F451C03E9A3F9A81E080937B
:102460009F0181E090E00E94160D182F147081FFEB
:102470000CC011112E98C1EFDFEF0E94190A86FFE0
:1024800041C02E9A2F9A0E94170A82E390E00E9480
:10249000970B0E94190A8111F8CF80E18093000107
:1024A000D7E0A6E34A2E512C612C712CAA24A394C8
:1024B000B12CC8E72C2E312CC5E08FB7F894409191
:1024C000A0015091A1016091A2017091A3018FBF61
:1024D0008091A501942F981B892F9091A401992395
:1024E00009F468C08093A6011092A40180E090E0F6
:1024F000892B19F30E940000DFCF10929F013E98B4
:102500003F98AFCF112329F0C430D10511F42E9A92
:102510002F9881E00E94AA0700E128E54CE656E0EA
:10252000BE0184E190E00E94E1060E94AB0A8FE0C8
:1025300090E00E94970B2196C931D10509F09DCFFB
:10254000112311F02F9A2D9880E991E00E94970BAA
:102550000E94170A81E090E00E94160D80FF95CF3F
:102560008AE090E00E94160D9FEF980F9E3F08F0C2
:102570008CCF22E330E03093AD012093AC0128E30F
:1025800030E03093AF012093AE01CBE0D0E0682F74
:102590008CEF96E00E94210ACE010E94160D219632
:1025A000C131D105A1F70E94AB0A88EE93E00E94E9
:1025B000970B6BCF90910001891748F48F5F8917B3
:1025C00008F094CF81E083BF889513BE8FCF81E060
:1025D0008093A4014093A5012091B0013091B101F5
:1025E0002F5F3F4F3093B1012093B0018091A6013E
:1025F000981780F55D980091B0011091B101C80164
:102600006AE070E00E945D1B7C01892B51F480918F
:102610006F0290917002892BF9F4B0927002A0922F
:102620006F0280E00E94AE0A1092AF011092AE01DC
:102630001092AD011092AC0180916D0290916E02EA
:102640008130910509F4B7C164F4892B71F10E94BE
:10265000AB0A4CCF5D9ACFCF1092700210926F02EE
:10266000E0CF8230910509F423C6039781F72091CA
:102670006B0230916C028091050190910601223825
:10268000BFEF3B070CF421C12150310930936C029C
:1026900020936B028238EFEF9E070CF47CC1019708
:1026A00090930601809305011DC10E94A20AE0914A
:1026B0006B02F0916C022091050130910601E23825
:1026C000AFEFFA07CCF0C80163E070E00E945D1B39
:1026D000892B09F0C4C63197F0936C02E0936B022A
:1026E0002238BFEF3B070CF4BEC6215031093093AE
:1026F00006012093050113C037FF0AC08FE790E061
:1027000090936C0280936B022238EFEF3E073CF00F
:10271000C80163E070E00E945D1B892B31F300FD6E
:1027200017C000E420E841EF58E070E060E08091DD
:102730006B0290916C020E94E10620E841EF58E0A4
:1027400070E060E080910501909106010E94E10631
:102750008EE190E09093AD018093AC018FE090E02A
:102760009093AF018093AE0168E471E08CEF96E046
:102770000E94B90C8DE290E09093AD018093AC0182
:102780009093AF018093AE018091B00180FD10C0A5
:1027900066E571E08CEF96E00E94B90C08E028E055
:1027A00049EE58E06DE270E08DE490E00E94E106B1
:1027B00088E00E94970A882309F449CF8091640039
:1027C0008E7F8093640080917A00806480937A0089
:1027D00080917A0086FDFCCF0091780010917900FD
:1027E0000E94BA0A30E020E0980111270027600F0C
:1027F000711F821F931F2091640021602093640049
:10280000611571058105910511F00E94DB1A83E0C5
:1028100090E0909304018093030110926A02109259
:1028200069021092680280E392E04EEF51E0E8EB1B
:10283000F1E02EEF31E02E173F0701F1DC01119698
:102840001C921E9213961C921E92129714961C9222
:10285000DA0111961C921E9213961C921E921297E8
:1028600014961C9211821082138212821582148295
:10287000168205964B5F5F4F3796DDCF8AE090E07A
:102880009093630280936202909367028093660242
:1028900090936502809364021092B7011092B60182
:1028A0001092B5011092B40180E290E09093020181
:1028B0008093010183E090E090936E0280936D021B
:1028C00083ED98E00E94040AC2CE97FFE8CE2FE77E
:1028D00030E030936C0220936B028238FFEF9F0749
:1028E0000CF0DDCE780121E0E222FF2400FD17C0CC
:1028F00000E420E841EF58E070E060E080916B0276
:1029000090916C020E94E10620E841EF58E070E0EF
:1029100060E080910501909106010E94E10680919E
:102920006F02909170020097D9F56091010170914A
:10293000020106E02EE045EC58E088E090E00E94BD
:10294000E10682E390E09093AD018093AC018EE1CB
:1029500090E09093AF018093AE01EF2831F46DE5E4
:1029600071E08CEF96E00E94B90C8091B2019091D9
:10297000B30101969093B3018093B2018937910519
:102980000CF465CEB0926E02A0926D021092B3016B
:102990001092B2015CCE37FFA5CF8FE790E080CEDA
:1029A000019779F6609101017091020106E02EE035
:1029B00047EB58E0C2CF0E94A20A80E80E94970A23
:1029C0002091010130910201882301F1223031056B
:1029D0000CF0C2C0EF2861F48091B4019091B50170
:1029E000833091052CF401969093B5018093B40146
:1029F0008091B4019091B5018A30910554F4280F6B
:102A0000391F309302012093010103C0293331059E
:102A10000CF38091010190910201181619060CF433
:102A2000A2C01092B5011092B401B0920201A0921E
:102A30000101C80165E070E00E945D1B892B71F403
:102A400080910101909102012091B4013091B50172
:102A5000820F931F9093020180930101C8016CE3E0
:102A600070E00E945D1B892B49F48091B601909122
:102A7000B70101969093B7018093B60184E00E945C
:102A8000970A882309F44BC0E0E3F2E090E080E08D
:102A90009C018A30910509F442C044810196359623
:102AA0004111F6CF3093670220936602C29FF00176
:102AB000C39FF00D1124E05DFD4F8DE090E0918308
:102AC0008083809101019091020103969383828318
:102AD00081E08483809171008D7F809371001092DA
:102AE000AB0187ED92E09093AA018093A9019093A6
:102AF000A8018093A70182EC91E09093D802809383
:102B0000D7028AE090E09093DA028093D90280E0C5
:102B100090E89093DC028093DB020E945C09E0E382
:102B2000CE2EE2E0DE2E22E632E076012E153F05C3
:102B300059F1D7018D919C9111978F3791050CF523
:102B400014964C9114974423E1F003968D939C9333
:102B5000F5E0EF0EF11CEACF8EEF9FEF9093B501F9
:102B60008093B40156CFCA970CF463CF89E390E009
:102B700090930201809301011092B5011092B4016B
:102B800058CFF7011482E4CF1092670210926602C8
:102B900080916602909167020A970CF0A3C0109290
:102BA0006502109264024091640250916502809126
:102BB0006602909167024A3051050CF08DC0C49FA7
:102BC000D001C59FB00D1124A250BE4F2D913C9154
:102BD0001197490162E0861A9108C89FF001C99FC8
:102BE000F00D1124E05DFD4F608171818B010D5F5F
:102BF0001F4F801691060CF060C0285F3F4F621790
:102C000073070CF05AC012962D913C91D90112977E
:102C1000628173816A177B070CF44FC0285F3F4FB6
:102C2000621773070CF049C02481222309F445C0C0
:102C3000E8EBF1E030E020E0B9012A30310509F499
:102C400046C016812F5F3F4F37961111F5CF709315
:102C5000630260936202D69FF001D79FF00D1124AA
:102C6000E854FE4F21E0268391828082B383A283C1
:102C700015821482C49FF001C59FF00D1124E2500B
:102C8000FE4F14821182108213821282C89F90011B
:102C9000C99F300D1124205D3D4FD90114961C921F
:102CA00089EA98E00E94040A8091B6019091B701E8
:102CB00044969093B7018093B601809164029091FD
:102CC0006502019690936502809364026CCF309305
:102CD000630220936202CECF0196909367028093A5
:102CE000660256CF20916B0230916C0280910501F3
:102CF000909106012238BFEF3B078CF0215031093B
:102D000030936C0220936B028238EFEF9E070CF435
:102D1000A7C0019790930601809305010CC097FF0F
:102D2000F8CF2FE730E030936C0220936B028238AB
:102D3000FFEF9F0774F71091B0019090B10110FD63
:102D400017C000E420E841EF58E070E060E08091B7
:102D50006B0290916C020E94E10620E841EF58E07E
:102D600070E060E080910501909106010E94E1060B
:102D7000812F992D64E170E00E945D1B892BC9F5BC
:102D8000EEEFF1E090E080E09C018A30910589F15E
:102D90004481019635964111F7CF30936502209317
:102DA0006402C29FF001C39FF00D1124E250FE4F58
:102DB0008FE790E0918380830E948C1A20916402B7
:102DC00030916502C29F8001C39F100D11240250F3
:102DD0001E4FA30192010E94FA1A6F5F7F4F8F4F1F
:102DE0009F4FD80113967C936E93129781E01496AF
:102DF0008C9310926502109264028090640290900D
:102E00006502BAE08B1691040CF042C0C89DF00137
:102E1000C99DF00D1124E250FE4F80819181893FC0
:102E20002FEF920764F12481222349F102979183C5
:102E3000808320916F023091700221153105A9F431
:102E40006281738108E028E041EA58E00E94E106CF
:102E50004FEF841A940A9092650280926402CDCF5B
:102E600037FF69CF8FE790E055CF2130310581F7EB
:102E70006281738108E028E049E958E0E7CFC89D06
:102E8000F001C99DF00D1124E250FE4F1482E0CFF5
:102E900010926502109264029924939402E010E06B
:102EA00080916402909165028A3091050CF047C0D0
:102EB000C89FF001C99FF00D1124E250FE4F8081A0
:102EC00091810197459750F582819381209101016D
:102ED00030910201A9014A5F5F4F84179507F4F40E
:102EE000089628173907D4F480916A02811116C018
:102EF000309269022092680290926A0280910301E6
:102F000090910401823091059CF001979093040107
:102F1000809303018BE898E00E94040A8091640288
:102F20009091650201969093650280936402B8CFF8
:102F300010936E0200936D0281E798E0EDCF8091CF
:102F4000680290916902181619060CF07EC0209153
:102F50006A02222309F479C0019790936902809351
:102F6000680280916F029091700220916A02222380
:102F700009F47EC0009709F06BC08091B00180FD1C
:102F80000CC0609101017091020106E02EE045EC59
:102F900058E088E090E00E94E106809168029091FC
:102FA0006902863791054CF080916D0290916E0216
:102FB000029719F081E00E94AE0ACE14DF0409F4F2
:102FC00062C0D60114968C911497882309F457C0D7
:102FD00012968D919C9113978034910508F04FC003
:102FE0002D913C91A9014E5F5F4F4238510508F089
:102FF00046C0A90137FF02C050E040E02D5F3F4FBF
:103000002138310514F020E830E0241BBC01677042
:10301000772731E001C0330F6A95EAF763E09595B1
:1030200087956A95E1F79695982F882797958795C4
:10303000480F591FFA01E951FD4F215000F18191CC
:10304000DF011197832B8C93F8CF10926A0289CFFE
:10305000019709F0A2CF8091B00180FD9ECF6091D1
:1030600001017091020106E02EE047EB58E091CF9C
:10307000009709F486CF019709F08FCFF0CFB5E024
:10308000CB0ED11C9ACF8AE090E090936702809398
:103090006602109263021092620280916202909125
:1030A00063028A3091050CF069C0D89FF001D99F66
:1030B000F00D1124E854FE4F8681882311F16281BE
:1030C0007381808191810480F581E02DED30F105DF
:1030D00008F045C0E059F74E0CE02CE00C94851B3D
:1030E0007D188B188E189118941897189A189D1897
:1030F000A018A318A618A918AC1849E558E00E9412
:10310000E1068091620290916302019690936302BE
:1031100080936202C2CF41E458E0F1CF49E258E027
:10312000EECF41E158E0EBCF49EF57E0E8CF41EE79
:1031300057E0E5CF49EC57E0E2CF41EB57E0DFCF76
:1031400049E957E0DCCF41E857E0D9CF49E657E0FD
:10315000D6CF41E557E0D3CF49E357E0D0CF9093A6
:10316000AD018093AC017093AF016093AE0164E652
:1031700071E08CEF96E00E94B90CC3CF8091B00152
:1031800080FD18C0E8EBF1E021E0EE3FF20761F0CE
:10319000848195818C3091052CF4019695838483EC
:1031A0003796F2CF1682FCCF8AE090E090936302CC
:1031B0008093620285E590E09093F5068093F40693
:1031C0009093F3068093F2060AE310E01093F7065B
:1031D0000093F6066AE671E087EE96E00E94B90C6D
:1031E0008EE690E09093F5068093F4069093F306B4
:1031F0008093F2061093F7060093F6068091030180
:10320000909104018230910509F44FC083309105FB
:1032100029F0019749F461E771E002C06FE671E0BF
:1032200087EE96E00E94B90C82E090E09093F5065C
:103230008093F4069093F3068093F2060AE310E07D
:103240001093F7060093F60663E771E087EE96E0C9
:103250000E94B90C8EE190E09093F5068093F406FD
:103260009093F3068093F2061093F7060093F60608
:10327000C090B601D090B7010D2C000CEE08FF08ED
:103280004AE0C701B601F7FE0DC06DE287EE96E099
:103290000E940A0C66277727CB016C197D098E09DD
:1032A0009F094AE00E94C80CD2C960E771E0B8CF1C
:1032B0000E94A20AC80163E070E00E945D1B892B96
:1032C000B9F400E420E841EF58E070E060E080915C
:1032D0006B0290916C020E94E10620E841EF58E0F9
:1032E00070E060E080910501909106010E94E10686
:1032F00087E290E09093AD018093AC018AE090E08A
:103300009093AF018093AE0169E771E08CEF96E096
:103310000E94B90C08E028E041E357E062E370E066
:1033200084E190E00E94E10680E290E09093AD019C
:103330008093AC0182E3E82EF12CF092AF01E09291
:10334000AE0163E871E08CEF96E00E94B90C28E0D2
:1033500049E257E062E370E087E490E00E94E10612
:1033600082E590E09093AD018093AC01F092AF01C3
:10337000E092AE0169E871E08CEF96E00E94B90C32
:1033800080E20E94970A882309F45EC083E090E0FF
:10339000909304018093030110926A0210926902D3
:1033A0001092680280E392E04EEF51E0E8EBF1E02A
:1033B0002EEF31E02E173F0701F1DC0111961C9230
:1033C0001E9213961C921E92129714961C92DA016A
:1033D00011961C921E9213961C921E92129714968E
:1033E0001C9211821082138212821582148216821C
:1033F00005964B5F5F4F3796DDCF8AE090E0909364
:1034000063028093620290936702809366029093B6
:103410006502809364021092B7011092B601109277
:10342000B5011092B40180E290E090930201809384
:10343000010183ED98E00E94040A83E090E09093FC
:103440006E0280936D0203C980E40E94970A88236C
:1034500009F4FDC810926E0210926D02F8C822386D
:103460003F4F0CF05CC980916B0290916C0297FF0A
:1034700056C98FE790E090930601809305014FC9EC
:103480008F929F92AF92BF92CF92DF92EF92FF9274
:10349000CF93DF93EC01688179818A819B816115EB
:1034A00071058105910521F464E279ED8BE597E0E2
:1034B0002DE133EF41E050E00E94FA1A49015A0130
:1034C0009B01AC01A7EAB1E40E94191B6B017C01CE
:1034D000ACEEB4EFA50194010E94271BC60ED71EC7
:1034E000E81EF91EF7FE06C081E0C81AD108E108FF
:1034F00080E8F80AC882D982EA82FB82C701B60155
:103500009F77DF91CF91FF90EF90DF90CF90BF90AA
:10351000AF909F908F9008958F929F92AF92BF929D
:10352000CF92DF92EF92FF9260911301709114019C
:103530008091150190911601611571058105910524
:1035400021F464E279ED8BE597E02DE133EF41E082
:1035500050E00E94FA1A49015A019B01AC01A7EA06
:10356000B1E40E94191B6B017C01ACEEB4EFA50124
:1035700094010E94271BC60ED71EE81EF91EF7FEF7
:1035800006C081E0C81AD108E10880E8F80AC092B4
:103590001301D0921401E0921501F0921601C701B7
:1035A000B6019F77FF90EF90DF90CF90BF90AF90E4
:1035B0009F908F90089560931301709314018093EE
:1035C0001501909316010895F999FECF92BD81BD22
:1035D000F89A992780B50895262FF999FECF1FBA3A
:1035E00092BD81BD20BD0FB6F894FA9AF99A0FBE2C
:1035F00001960895052E97FB1EF400940E94111B5E
:1036000057FD07D00E942C1B07FC03D04EF40C94EE
:10361000111B50954095309521953F4F4F4F5F4F6F
:10362000089590958095709561957F4F8F4F9F4F2E
:1036300008950E944E1BA59F900DB49F900DA49FCE
:10364000800D911D11240895B7FF0C94191B0E9441
:10365000191B821B930B0895A1E21A2EAA1BBB1BF8
:10366000FD010DC0AA1FBB1FEE1FFF1FA217B3074E
:10367000E407F50720F0A21BB30BE40BF50B661F64
:10368000771F881F991F1A9469F760957095809528
:1036900090959B01AC01BD01CF010895A29FB0019F
:1036A000B39FC001A39F700D811D1124911DB29F76
:1036B000700D811D1124911D0895AA1BBB1B51E1A2
:1036C00007C0AA1FBB1FA617B70710F0A61BB70B92
:1036D000881F991F5A95A9F780959095BC01CD0137
:1036E000089597FB072E16F4009407D077FD09D0B4
:1036F0000E945D1B07FC05D03EF4909581959F4F7D
:103700000895709561957F4F0895EE0FFF1F059006
:0A371000F491E02D0994F894FFCF26
:10371A0010200003007F00FFFFFFFF00E100000010
:10372A000000000100000000C180810000000000CC
:10373A0000000808120B29081E086F082D084B08FC
:10374A00000000000A0C1B09B60CB50C00000000B2
:10375A00210A1B09B60CB50C535041434520534866
:10376A004F4F544552005072657373200052656181
:10377A0064793F004552524F52004C494645006910
:10378A0069690053434F52450047414D45204F5602
:0E379A004552005265747279004D656E7500DF
:00000001FF
