:100000000C94E5060C940D070C940D070C940D0749
:100010000C940D070C940D070C940D070C940D0710
:100020000C940D070C940D070C94130E0C94820E77
:100030000C940D070C940D070C940D070C940D07F0
:100040000C940D070C940D070C940D070C940D07E0
:100050000C940D070C940D070C940D070C941511BE
:100060000C940D070C940D070C940D070C940D07C0
:100070000C940D070C940D070C940D070C940D07B0
:100080000C94B4100C940D070C940D070C940D07F0
:100090000C940D070C940D070C940D070C940D0790
:1000A0000C940D070C940D070C940D07000000082C
:1000B0000000000000000000000000000000000040
:1000C0002000000000000000000000000000000010
:1000D0000000000010000000000000000000000010
:1000E0000040000000000000000000000000800050
:1000F00000000000001000000000000000000000F0
:10010000000000000020000000000000000000804F
:1001100000000000020000000000000004000000D9
:10012000000080000000002000000000000000002F
:10013000004000000000000200000000000010006D
:100140004000000002000000000000000000080065
:10015000000000000000800000000000001000000F
:1001600000000000008000000000100000000000FF
:100170000000000008000000000000000000000077
:10018000000200000000000000000000000000006D
:10019000000000000000000100000000002000003E
:1001A00000000000000000800000000000000000CF
:1001B00000000000000000004000000000000000FF
:1001C0000000000400000000000000000004000027
:1001D00000000000000000000000002000000000FF
:1001E00000000000000000000000400000000000CF
:1001F00020000000000000000001000000000010CE
:1002000000000000000000000000010000000000ED
:1002100010000200000020000000000000000000AC
:10022000400000000000000000800000000000000E
:100230000008000000000080000000000000000036
:10024000010000001000000000000200000000009B
:10025000800000000000000000000000000000001E
:10026000000000000080000000000000000000000E
:10027000000000004000000000000002000000003C
:10028000000000020000000000002000000000004C
:1002900000800000000000000000000000000000DE
:1002A000000000002000000000000000000000002E
:1002B00000000000400000000000000000000000FE
:1002C0000000000000000000080000000000000026
:1002D000000000000000000000000001000000001D
:1002E000000000000000000000000000000000000E
:1002F00000000000000000000000000000000200FC
:1003000000000000400000000000000000000000AD
:10031000000040000000000000000001000000009C
:10032000008000000000000000000000000000004D
:10033000002000000000000000000000000000029B
:1003400000000000000000000000000400000000A9
:10035000000200000000000000002000000000007B
:10036000000200008000000000000000000000010A
:10037000000000000000000020000000000000005D
:100380000000000000200000000000000400000049
:1003900000000000000000040000000000000080D9
:1003A000000000000000000000010000000000004C
:1003B0000000000000000000000000040000000039
:1003C000000000000000100000000000000000100D
:1003D00000000000000000400000000000000000DD
:1003E0000000000000000000000008000000000005
:1003F00000000000400000000000000000000100BC
:10040000000000000020000000000080000000004C
:1004100000020000000000000000000000000000DA
:1004200000000000000002000000000000000000CA
:1004300000000800000000000000000000040000B0
:10044000000000000000000000000000000020008C
:10045000000000000000000000000000000000019B
:100460000000000000000000000000000800000084
:10047000000000000000004000000000000000013B
:10048000000000000000000000000000000000006C
:100490000000000000000004000000000000000058
:1004A00000002000000200000000000000B000007A
:1004B000A170E150964F26900F1D070C0096690021
:1004C0004AE44A0048444000806810000F99FB8FBE
:1004D0009DBDBBFB77D4D4DF1F1A1AFE7F5D5DFF85
:1004E000805A0000A0A4AA0010BA3400FF5953F3A8
:1004F000FF9B9B9EFFB9B996FF9595D19FF4940FF2
:10050000FC295F91FF1838F8FF9294FFFF95D5F70B
:10051000BFB5DDD7F18F81F1F788C8F779C6467985
:1005200009FD9B090196F80082818280507162006A
:100530007756560076763700A2B773010772060029
:100540007827500073347400775176007F55F70098
:1005500047711000324772007364730015A2750072
:1005600061679400009F6060F4F2F6F20000000002
:10057000003E5B4F5B3E3E6B4F6B3E1C3E7C3E1C29
:10058000183C7E3C181C577D571C1C5E7F5E1C006F
:10059000183C1800FFE7C3E7FF0018241800FFE726
:1005A000DBE7FF30483A060E2629792926407F05E9
:1005B0000507407F05253F5A3CE73C5A7F3E1C1CFF
:1005C00008081C1C3E7F14227F22145F5F005F5FBF
:1005D00006097F017F006689956A606060606094AB
:1005E000A2FFA29408047E040810207E20100808B0
:1005F0002A1C08081C2A08081E101010100C1E0CBB
:100600001E0C30383E3830060E3E0E06000000004C
:100610000000005F00000007000700147F147F1433
:10062000242A7F2A12231308646236495620500078
:1006300008070300001C2241000041221C002A1C64
:100640007F1C2A08083E080800807030000808084F
:100650000808000060600020100804023E5149456F
:100660003E00427F400072494949462141494D338D
:100670001814127F1027454545393C4A49493141F4
:10068000211109073649494936464949291E0000C2
:100690001400000040340000000814224114141417
:1006A0001414004122140802015909063E415D5903
:1006B0004E7C1211127C7F494949363E414141220C
:1006C0007F4141413E7F494949417F090909013E36
:1006D000414151737F0808087F00417F410020405D
:1006E000413F017F081422417F404040407F021C6F
:1006F000027F7F0408107F3E4141413E7F09090986
:10070000063E4151215E7F09192946264949493251
:1007100003017F01033F4040403F1F2040201F3F17
:100720004038403F6314081463030478040361599C
:10073000494D43007F4141410204081020004141DE
:10074000417F04020102044040404040000307088A
:100750000020545478407F28444438384444442886
:10076000384444287F385454541800087E0902182D
:10077000A4A49C787F0804047800447D40002040B5
:10078000403D007F1028440000417F40007C0478F9
:1007900004787C080404783844444438FC18242441
:1007A0001818242418FC7C080404084854545424C1
:1007B00004043F44243C4040207C1C2040201C3C3E
:1007C0004030403C44281028444C9090907C446435
:1007D000544C4400083641000000770000004136C8
:1007E000080002010204023C2623263C1EA1A1614E
:1007F000123A4040207A3854545559215555794180
:100800002154547841215554784020545579400C56
:100810001E52721239555555593954545459395537
:100820005454580000457C410002457D420001457A
:100830007C40F0292429F0F0282528F07C545545E7
:10084000002054547C547C0A097F4932494949327A
:100850003248484832324A4848303A4141217A3A8F
:1008600042402078009DA0A07D39444444393D4059
:1008700040403D3C24FF2424487E4943662B2FFC06
:100880002F2BFF0929F620C0887E090320545479B4
:10089000410000447D413048484A32384040227A85
:1008A000007A0A0A727D0D19317D2629292F282602
:1008B0002929292630484D4020380808080808080A
:1008C0000808382F10C8ACBA2F102834FA00007B63
:1008D000000008142A142222142A14089500220069
:1008E00095AA005500AAAA55AA55AA000000FF0023
:1008F000101010FF00141414FF001010FF00FF1060
:1009000010F010F0141414FC001414F700FF000091
:10091000FF00FF1414F404FC141417101F10101F10
:10092000101F1414141F00101010F0000000001FFE
:10093000101010101F10101010F010000000FF1009
:100940001010101010101010FF10000000FF140005
:1009500000FF00FF00001F10170000FC04F4141437
:100960001710171414F404F40000FF00F714141403
:1009700014141414F700F7141414171410101F1083
:100980001F141414F4141010F010F000001F101FA6
:100990000000001F14000000FC140000F010F01014
:1009A00010FF10FF141414FF141010101F0000008B
:1009B00000F010FFFFFFFFFFF0F0F0F0F0FFFFFF8F
:1009C0000000000000FFFF0F0F0F0F0F38444438E6
:1009D000447C2A2A3E147E02020606027E027E0221
:1009E00063554941633844443C04407E201E200640
:1009F000027E020299A5E7A5991C2A492A1C4C727D
:100A000001724C304A4D4D303048784830BC625A03
:100A1000463D3E494949007E0101017E2A2A2A2A93
:100A20002A44445F444440514A444040444A51406F
:100A30000000FF0103E080FF000008086B6B083630
:100A400012362436060F090F0600001818000000A1
:100A50001010003040FF0101001F01011E00191D90
:100A60001712003C3C3C3C0000000000F0F89C8E5B
:100A70008783878E9CF8F00000FEFF0303030303C7
:100A8000070EFCF80000FEFF0303030303070EFC40
:100A9000F80000FFFF00000000000000FFFF000062
:100AA000FEFF8383838383C7EE7C380000F8FC0E4F
:100AB00007030303070EFCF800003F7FE0C08080BF
:100AC000C0E07F3FFFFF01010101010101FFFF00C5
:100AD00000FFFF0C0C0C0C1C3E77E3C100007FFFF5
:100AE000C0C0C0C0C0E0703F1F00001F3F70E0C02A
:100AF000C0C0E0703F1F00007FFFC1C1C1C1C1E3A2
:100B0000773E1C00001F3F70E0C0C0C0E0703F1F78
:100B1000000000000001FFFF01000000D5F08D146F
:100B2000A1C881CFD9F1AF200093024B00DC03961E
:100B30000000803C003C203C003C0C4D656E750084
:100B40003C24E79999FF3C3C5265747279003C3C27
:100B5000FF9999E7243C47414D45204F56455200A7
:100B600053434F5245004572726F720069006969C4
:100B700000696969004C494645004552524F520090
:100B800000000000006060000000000000000000A5
:100B90000000000000000000000000006090906075
:100BA0000000000000000000000000000000000045
:100BB000000060980804040898600000000000012C
:100BC000010202010100000000F0980C060202067A
:100BD0000C98F00000000103060404060301000065
:100BE00000006098080404089860000000000001FC
:100BF000010202010100000000000060900808905E
:100C00006000000000000000000101000000000082
:100C100000F0980C669292660C98F00000000103B8
:100C2000060404060301000000F0980C0662620648
:100C30000C98F00000000103060404060301000004
:100C400000F0980C060202060C98F0000000010368
:100C5000060404060301000000006098080404086C
:100C60009860000000000001010202010100000084
:100C70000000006090080890600000000000000084
:100C80000001010000000000000000006090906082
:100C90000000000000000000000000000000000054
:100CA0000000000000606000000000000000000084
:100CB000000000000000000093027D0000007D00A5
:100CC0000B027D004A017D0000007D000601F40159
:100CD0000080B8014B0088014B005D014B00008093
:100CE00018387C32723C381818383C72327C38180C
:100CF0001F004B001F004B001F004B00008052657F
:100D00006164793F000000141E0C1E1E1E1E1E1C76
:100D10001C080000000A1E0C1E1E1E1E1E1C1C08A5
:100D2000005D01640088016400EE0164004B026410
:100D3000001003C80000807EC3B99595B9C37E50EA
:100D4000726573732000535041434520464C415017
:100D5000505900080B0002020200000904000001C3
:100D600002020000052400100105240101010424F1
:100D7000020605240600010705810310004009044E
:100D80000100020A000000070502024000000705FA
:100D900083024000000403090412010002EF020173
:100DA00040412336800001010203014172647569EC
:100DB0006E6F204C4C430041726475696E6F204C1D
:100DC000656F6E6172646F00921111241FBECFEFC8
:100DD000DAE0DEBFCDBF11E0A0E0B1E0E0EBF5E38B
:100DE00002C005900D92A834B107D9F726E0A8E417
:100DF000B1E001C01D92AB3BB207E1F716E0C5EED2
:100E0000D6E004C02197FE010E94D01AC43ED1074B
:100E1000C9F70E94F2110C94D61A0C94000080912C
:100E20005B0108954F925F926F927F928F929F9293
:100E3000AF92BF92CF92DF92EF92FF920F931F93E8
:100E4000CF93DF9330E0F901E80FF91F1E161F065C
:100E50000CF0A0C0803891050CF09CC0FB01E00FA5
:100E6000F11D1E161F060CF095C0603471050CF0C4
:100E700091C0DB0177FF04C0AA27BB27A61BB70BD5
:100E8000A770BB27FB0177FD3796C3E0F595E79583
:100E9000CA95E1F777FF07C0319768E070E0EB0192
:100EA000CA1BDB0BDE01802E869486948694912CDF
:100EB000077019F0DFEF8D1A9D0ABF018A01AF019B
:100EC0005695542F442757954795480F591F4E550F
:100ED0005D4F860E971EE8E0F0E03F016A1A7B0A3C
:100EE0008616970609F456C06830710509F452C099
:100EF0006F3FEFEF7E070CF443C07C01D0E0C0E011
:100F00005A01E0E8AE0EB11CF7FC2EC06F3F760729
:100F100009F43DC0FE01E00FF11FE4916A01CC0E1F
:100F2000DD1EF0E02F010A2E01C0440C0A94EAF7FE
:100F3000F6015080452840821097B1F06730710566
:100F400099F0F801EC0FFD1FE4916501CC0EDD1E58
:100F5000F0E02F01062C02C0559447940A94E2F762
:100F6000F6015080452840822196FFEFEF1AFF0AD4
:100F7000C217D3072CF4F0E8EF16F10409F0C4CF40
:100F80006F5F7F4F020F131F40585F4FA9CF10971D
:100F9000C1F6EACFDF91CF911F910F91FF90EF90B3
:100FA000DF90CF90BF90AF909F908F907F906F9089
:100FB0005F904F900895E2EAF2E0A0E0B8E0008090
:100FC0000EBC8111012C1197A0FDFDCF0192B9F744
:100FD0000DB40895FC0180913F02882311F13FB7C1
:100FE000F89482E08093E9002091F200822F90E053
:100FF0001816190614F481E090E0882339F0289837
:1010000044E640933E024091F1004083222339F0B0
:101010002091F200211103C02BE62093E8003FBF8E
:1010200008958FEF9FEF08952FB7F89483E0809392
:10103000E9009091E800892F807295FF04C090919B
:10104000F20080E4891B2FBF089580913602811140
:101050000DC082E08093320284E0809333021092CC
:1010600035021092340281E08093360282E392E0EE
:101070000895CF93DF931F92CDB7DEB76983DC016C
:10108000ED91FC910280F381E02D41E050E0BE0142
:101090006F5F7F4F09950F90DF91CF91089583E0A7
:1010A0008093E9008091F200882319F08AE380930D
:1010B000E80008950E94140890E00895CF93DF930C
:1010C0001F92CDB7DEB7FC018485958597FD08C0DA
:1010D0002FEF3FEF358724870F90DF91CF91089551
:1010E000CE0101960E94EA07019719F4898190E0E8
:1010F000F3CF8FEF9FEFF0CF0F931F93CF93DF933B
:101100001F92CDB7DEB78C01FC018485958597FFD2
:101110000BC0CE0101960E94EA07019771F4898104
:1011200090E0F80195878487F801848595850F9074
:10113000DF91CF911F910F9108958FEF9FEFF1CF26
:10114000FC018485958597FD0BC09FB7F89482E0DC
:101150008093E9008091F2009FBF90E0019608958E
:101160009FB7F89482E08093E9008091F2009FBFDE
:1011700090E0089540912C0250912D0220912A0276
:1011800030912B0242175307B4F49091E800957008
:10119000E1F39091E80092FD19C08093F1008091F5
:1011A0002C0290912D0201968F739927892B19F4A7
:1011B0008EEF8093E80080912C0290912D02019691
:1011C00090932D0280932C0281E0089580E0089591
:1011D000DF92EF92FF920F931F93CF93DF93D82E5E
:1011E0008A01EB017B01E40EF51ECE15DF0559F0F7
:1011F000D7FE12C0FE0184910E94BA082196811187
:10120000F4CF0FEF1FEFC801DF91CF911F910F9126
:10121000FF90EF90DF9008958881EECF0F931F939A
:10122000CF93DF931F92CDB7DEB782E0898342E48C
:1012300050E063E57DE080E80E94E8080E94250810
:10124000DC0112960D911C910115110589F0D80150
:10125000ED91FC910280F381E02DBE016F5F7F4F25
:10126000C801099597FD04C0F80100851185ECCFF0
:1012700089810F90DF91CF911F910F910895615057
:1012800030F02091F100FC0120830196F8CF2898DE
:1012900084E680933E020895EF92FF920F931F938E
:1012A000CF93DF938C017B01D0E0C0E0F701EC0F1E
:1012B000FD1F6491662361F0D801ED91FC910190CE
:1012C000F081E02DC8010995892B11F02196EECF10
:1012D000CE01DF91CF911F910F91FF90EF90089574
:1012E000AF92BF92CF92DF92EF92FF920F931F9334
:1012F000CF93DF936C017B018B01040F151FEB0172
:101300005E01AE18BF08C017D10759F06991D60128
:10131000ED91FC910190F081E02DC6010995892B9A
:1013200079F7C501DF91CF911F910F91FF90EF9059
:10133000DF90CF90BF90AF90089520916C01E09125
:101340006A01F0916B01CF01029690936B0180933B
:101350006A01222319F085919491089580819181E9
:101360000895CF92DF92EF92FF92CF93DF930E9486
:101370009D09811520E8920791F4809171008D7F7D
:1013800080937100109291004698479810925401F2
:10139000DF91CF91FF90EF90DF90CF90089521E003
:1013A00020935401813020E8920751F48091680124
:1013B0009091690190936B0180936A010E949D094D
:1013C00097FD05C020915301222309F454C02091B8
:1013D0005201211150C021E020935501EC01DF772B
:1013E000209709F04BC081E08093560146983FE971
:1013F000C32E3FE0D32EE12CF12CCAEFD0E0E091D8
:101400009E02F0919F020995811103C081E08093B3
:10141000560180915501882329F080915601882337
:1014200009F43FC047980E949D090097F1F19C0183
:10143000DE010E94991ADC01CB0129E0B595A79540
:10144000979587952A95D1F7109290002AE02093DE
:101450009100D0929900C092980080935701909388
:101460005801A0935901B0935A0180917100826094
:10147000809371008DCF10925501B0CF9E0150E046
:1014800040E060E472E48FE090E00E94451A690158
:101490007A0181E0C81AD108E108F10810925601DA
:1014A000AECF4699BFCF479ABECF8FEF9FEFDC01FB
:1014B000CBCF9C01E1E7F0E090819D7F908381E0BC
:1014C00080936C0130936B0120936A013093690122
:1014D000209368010C94B1092D9A08958FB18095DD
:1014E000807F669B88601C9B84600895AF92BF924A
:1014F000CF92DF92EF92FF920F931F93CF93DF93E0
:101500006D3079F0C0916F01D09170016A30B1F403
:1015100010926E0110926D012896D0937001C093C5
:101520006F0181E090E0DF91CF911F910F91FF90CB
:10153000EF90DF90CF90BF90AF90089540916D01F4
:1015400050916E0185E0689FF0011124E459FA4F33
:101550009A01C12C80E1E82EA5E070E0CA1621F0C6
:10156000CF0101967491FC0110E000E0B72FB1703B
:10157000DB2E20383105D0F4CE01800F911F80344E
:101580009105A0F461E081FD64E080FD660F82FDBD
:101590006295887FE89ED0011124A20FF62EAE55E9
:1015A000BD4F8C91DD20A9F0862B8C9376950F5F33
:1015B0001F4F08301105D1F6C3942F5F3F4F86E0CF
:1015C000C812CACF4A5F5F4F50936E0140936D01BE
:1015D000A8CFF0948F21E9CF90915101982329F45D
:1015E00090915001982381E009F480E00895809162
:1015F0005001809351010E946E0A8093500108951A
:1016000080E00C94DB07E2EAF2E081118FEF002426
:1016100081938193819381930394D1F708953FB788
:10162000F89480914C0190914D01A0914E01B091A0
:101630004F0126B5A89B05C02F3F19F00196A11DAB
:10164000B11D3FBFBA2FA92F982F8827BC01CD010C
:10165000620F711D811D911D42E0660F771F881F6B
:10166000991F4A95D1F708958F929F92AF92BF929A
:10167000CF92DF92EF92FF926B017C010E940F0BE1
:101680004B015C01C114D104E104F104B9F00E94E2
:101690000F0B681979098A099B09683E7340810517
:1016A000910580F321E0C21AD108E108F10888EE23
:1016B000880E83E0981EA11CB11CE4CFFF90EF9030
:1016C000DF90CF90BF90AF909F908F9008958F92B2
:1016D0009F92AF92BF92CF92DF92EF92FF920F93C1
:1016E0001F93CF93DF936C017B018A0180911201DC
:1016F000882309F45CC080913F02882309F457C015
:101700008091310280FF05C08091E000826080936B
:10171000E000E801B12C8AEFA82E93E0892E2AE39D
:10172000922E209711F4BB20D9F10E941408811148
:101730000AC0AA94AA20D9F161E070E080E090E0AC
:101740000E94340BEECF8C171D0611F00CF08C2F7D
:101750009FB7F8948092E9002091E80025FD02C02F
:101760009FBFDFCF282F30E0C21BD30BF701815082
:1017700020F041914093F100FACFE20EF31EBB201E
:1017800021F09092E800B12CEBCF8091E80085FD2C
:10179000E7CF9092E800BB24B394209709F3F3CFEE
:1017A0005D9884E680933002101611063CF081E0CB
:1017B00090E0F6019383828310E000E0C801DF919E
:1017C000CF911F910F91FF90EF90DF90CF90BF903E
:1017D000AF909F908F900895BC0190E080E00C94B2
:1017E000340B6F927F928F929F92AF92BF92CF9263
:1017F000DF92EF92FF920F931F93CF93DF934C01F1
:101800007B01C22F102F98E0A92EB12C642E669474
:1018100066946694712CCA0187709927892B79F593
:10182000D40117962D913C91C7019927B9010E94C7
:10183000BC1A269DF001279DF00D369DF00D112458
:101840008E0F9F1FD4011596ED91FC91E80FF91FA3
:101850002081111112C0C095C223C083DF91CF91A6
:101860001F910F91FF90EF90DF90CF90BF90AF90BE
:101870009F908F907F906F900895C22BEECFD0E015
:101880004770C42ED12C83E0660C771C8A95E1F753
:101890009E0101C0220F4A95EAF7012FA301B7016B
:1018A000C4010E94F10BA301485F5F4FC5018C1971
:1018B0009D0902C0D595C7958A95E2F7A7CF5F929B
:1018C0006F927F928F929F92AF92BF92CF92DF9250
:1018D000EF92FF920F931F93CF93DF93EC016A3047
:1018E000F1F48D859E859C878B878C892F8538891F
:1018F000820F932F911D988B8F8781E090E0DF916D
:10190000CF911F910F91FF90EF90DF90CF90BF90FC
:10191000AF909F908F907F906F905F900895AB8471
:10192000BC84693031F429E0A20EB11CBC86AB86C0
:10193000E4CF3DEFA3163FEFB3060CF45DC08F81FB
:101940009885A816B9060CF057C0CF84D8888DEFBB
:10195000C8168FEFD8060CF44FC089859A85C81633
:10196000D9060CF049C0603208F46FE780EE860FAC
:101970009FE9960F9A3118F49FEFC91AD90A8C3053
:1019800011F08B3119F42FEFC21AD20A869534E088
:10199000839FC00111249C0124553B4F7901912C58
:1019A000812C162F1170F701E80DF91D54901111BB
:1019B0002DC0352D3F70532E3501680C791C8C815C
:1019C000882361F001E089899A89892B09F000E078
:1019D0002FE0A601B301CE010E94F10B0989252D4C
:1019E000A601B301CE010E94F10B8FEF881A980A6D
:1019F00094E089169104B9F68B8990E004962B85C2
:101A00003C85820F931F9C878B8777CF52948FE002
:101A10005822D2CFCF93DF9383E090E090930401DC
:101A2000809303011092750110927401109273015A
:101A3000CEEED1E0ACEBB1E0E6E7F1E0198218823E
:101A40001B821A821C8211961C921E9213961C9263
:101A50001E92129714961C92149711821082138270
:101A6000128215821482168225961596379681E089
:101A7000EC3BF80719F71092210210922002109205
:101A800023021092220280E290E09093060180935C
:101A90000501109264011092630110926601109288
:101AA00065011092670184EF91E09093A102809309
:101AB000A002DF91CF9108950F93BC01E0914801FE
:101AC000F091490120910001309101014091710193
:101AD00090917201E2388FEFF807ACF0842F0E94EA
:101AE000A81A892BE1F53197F0934901E093480159
:101AF00022388FEF3807B4F12150310930930101BA
:101B00002093000111C037FF0AC0EFE7F0E0F09327
:101B10004901E093480122388FEF38072CF0842FD9
:101B20000E94A81A892B41F340FD17C000E420E869
:101B30004CEA50E070E060E08091480190914901EA
:101B40000E94120720E84CEA50E070E060E08091CB
:101B50000001909101010E9412070F91089522380F
:101B60003F4F14F7809148019091490197FFDCCFD6
:101B70008FE790E09093010180930001D5CF089505
:101B800090E080E008958F929F92AF92BF920F9362
:101B90001F93CF93DF93CDB7DEB7A1970FB6F8941D
:101BA000DEBF0FBECDBF19A2423008F44AE08E015D
:101BB0000F5D1F4F842E912CB12CA12CA5019401F7
:101BC0000E94771AE62FB901CA01EA3044F5E05DB8
:101BD000D801EE938D01232B242B252B79F790E050
:101BE00080E0109769F0FD0101900020E9F731973E
:101BF000AF014A1B5B0BBD0182EA96E00E947009AF
:101C0000A1960FB6F894DEBF0FBECDBFDF91CF9186
:101C10001F910F91BF90AF909F908F900895E95CB6
:101C2000D7CF0C942F1A1F920F920FB60F92112438
:101C30008F939F938091E1009091E100937F909327
:101C4000E10083FF0FC01092E90091E09093EB0058
:101C50001092EC0092E39093ED0010923F0298E016
:101C60009093F00082FF22C093E09093E90090915E
:101C7000F200992319F09AE39093E80090913002D2
:101C8000992341F09091300291509093300291113C
:101C900001C05D9A90913E02992341F090913E02DD
:101CA000915090933E02911101C0289A84FF18C070
:101CB0008091E2008E7E81608093E2008091E1005D
:101CC0008F7E8093E100809131028E7E80618093CF
:101CD00031029F918F910F900FBE0F901F9018951A
:101CE00080FFF7CF8091E2008E7E80618093E200DA
:101CF0008091E1008E7E8093E100809131028E7EA2
:101D00008160E5CF1F920F920FB60F921124CF92F0
:101D1000DF92EF92FF920F931F932F933F934F9376
:101D20005F936F937F938F939F93AF93BF93EF9343
:101D3000FF93CF93DF93CDB7DEB76C97DEBFCDBFF8
:101D40001092E9008091E80083FF25C068E0CE0191
:101D500045960E943F0982EF8093E8008D8987FFB6
:101D600039C09091E80090FFFCCF982F907609F051
:101D700034C19E894F89588D2F89F88C911131C0BB
:101D8000803861F580912F028093F1001092F1006C
:101D90008EEF8093E8006C960FB6F894DEBF0FBE0E
:101DA000CDBFDF91CF91FF91EF91BF91AF919F9107
:101DB0008F917F916F915F914F913F912F911F91E3
:101DC0000F91FF90EF90DF90CF900F900FBE0F908C
:101DD0001F9018959EEF9093E800C7CF1092F100E6
:101DE000D5CF913059F48111D3CF4130510581F6CF
:101DF00080912F028D7F80932F02CACF933049F4B8
:101E00008111C6CF4130510519F680912F028260B1
:101E1000F2CF953041F48091E80080FFFCCF20683C
:101E20002093E300B5CF963009F0A9C00B8D1C8D2F
:101E300022E01092E90010922D0210922C02F21270
:101E40002EC010922B0210922A020E940E091F82AD
:101E500099E09983FA8291E09E8390EA98879AEFBD
:101E6000998720912C0230912D02275F3F4F3C83B0
:101E70002B838D831092E90010922D0210922C0278
:101E800010932B0200932A0249E050E0BE016F5FDD
:101E90007F4F80E00E94E8080E940E0979CF1093DE
:101EA0002B0200932A020E942508DC0112960D9154
:101EB0001C910115110509F451C1D801ED91FC9156
:101EC0000480F581E02DBE016B5E7F4FC80109954E
:101ED000009709F03EC1F80100851185EACFF3E0D3
:101EE000FF120EC08F89882309F440C0823061F44C
:101EF00040E860E187EB9DE00E945F11811148CFCF
:101F000081E28093EB0047CF813029F440E86BE019
:101F10008BEA9DE0F1CF833099F70E942508DC0120
:101F20001296ED90FC908E010F5F1F4F6801E11437
:101F3000F10479F0D701ED91FC910680F781E02D55
:101F4000B801C7010995080F111DF701E084F1845C
:101F5000EECFD8011C92F60101900020E9F73197ED
:101F6000BF016C197D0940E0C601C6CF65E97DE07F
:101F7000FB01449150E080E80E94E80809CF9730C7
:101F800009F4BECF983021F481E08093F10000CFB6
:101F9000993009F0FDCE837009F0B2CFE8E1F1E0AD
:101FA00081E031E096E32191222371F08093E900F2
:101FB0003093EB00DF0111972C912093EC0090936C
:101FC000ED008F5F873079F78EE78093EA001092FB
:101FD000EA008F8980933F02DBCE8B8D9C8D10921F
:101FE000E90010922D0210922C0290932B02809304
:101FF0002A02898D811192C08E899D89913A49F476
:10200000813209F07DCF47E050E06BE071E080E085
:10201000B3CF913209F074CF833269F48F89988DF0
:10202000B0E0A0E08093070190930801A09309011C
:10203000B0930A01ADCE803269F48091E80082FF4E
:10204000FCCF67E08BE091E00E943F098BEF80932B
:10205000E8009ECE823209F09BCE8F8980931201D8
:10206000EEEFFFE7859194918B3F9C4D51F1E0E0BD
:10207000F8E080910B0190910C01A0910D01B091BD
:102080000E01803B9440A105B105F1F4809112014D
:1020900080FD1AC0EE3F8AE0F80789F587E797E7E9
:1020A000918380838091600080932E0288E19BE081
:1020B0000FB6F894A895809360000FBE90936000CF
:1020C00067CEEEEFFAE0D5CF8081918187379747D1
:1020D00009F05ECEA89580916000886180936000D1
:1020E00080912E0280936000EE3F2AE0F20789F093
:1020F0008091FE0A9091FF0A9183808349CE80816E
:1021000091818737980751F29093FF0A8093FE0AD6
:10211000C5CF1092FF0A1092FE0A3ACE0E942508FF
:10212000DC0112960D911C910115110509F4E8CE00
:10213000D801ED91FC910190F081E02DBE016B5E24
:102140007F4FC8010995811123CEF80100851185C3
:10215000EBCF181619060CF41BCED2CEF1E0FF120D
:10216000BECE69E97DE004CF1F920F920FB60F92A9
:1021700011242F933F934F935F936F937F938F938C
:102180009F93AF93BF93EF93FF93809157019091EB
:102190005801A0915901B0915A01892B8A2B8B2BA0
:1021A00009F440C08091560181110BC088B190E4C0
:1021B000892788B980915501882319F088B1805802
:1021C00088B98091570190915801A0915901B0911F
:1021D0005A01181619061A061B069CF4809157011D
:1021E00090915801A0915901B0915A010197A1090C
:1021F000B1098093570190935801A0935901B0936E
:102200005A01FF91EF91BF91AF919F918F917F9173
:102210006F915F914F913F912F910F900FBE0F9053
:102220001F9018950E94B109ECCF0F920FB68F93B3
:102230009F93EF93FF9380914B018D5F8D3708F053
:102240008D5780934B01ECE5F1E080818E4F8083C8
:1022500091819F4F918382818F4F828383818F4FA2
:102260008383ECE4F1E080818F5F808381818F4FF5
:10227000818382818F4F828383818F4F83838FB14C
:102280008F6066991C9B88278F3681F480914A0164
:10229000981B963068F0E0E0F8E087E78083818360
:1022A00088E180936000F0936000FFCF90934A0133
:1022B000FF91EF919F918F910FBE0F901895EF9224
:1022C000FF920F931F93CF93DF93F82E192FE62ED3
:1022D000042F81E0860F880F0E94BA0883E00E94D5
:1022E000BA08CF2DD12FEC0EFD2EF11CCE15DF0537
:1022F000B9F007FF13C0FE0184910E94BA08182F9D
:1023000080E00E94BA08812321968111EFCFDF91EE
:10231000CF911F910F91FF90EF9008958881EDCF9D
:1023200081E0F5CFE0E4F2E01382128288EE93E0E0
:10233000A0E0B0E084839583A683B78382E291E036
:10234000918380838FEF9FEF95878487E7EBF6E09B
:102350001382128280E491E0918380838FE097E082
:1023600090939F0280939E0280E090E890939D025C
:1023700080939C0246983E9A47983F9AE2EAF6E09C
:102380001382128284E391E09183808382EA92E057
:102390009683858380E890E09087878380E490E04F
:1023A0009287818785E0848B81E0838B16861586F2
:1023B000108A17861486138681E090E0928B818BB9
:1023C00014820E94D71928EC30E040E050E00E94CF
:1023D000451A60577E4F8F4F9F4F7093A1026093B5
:1023E000A0020895789484B5826084BD84B581602C
:1023F00084BD85B5826085BD85B5816085BD8091D0
:102400006E00816080936E00109281008091810047
:10241000826080938100809181008160809381003F
:102420008091800081608093800080919100826023
:1024300080939100809191008160809391008091C0
:1024400090008160809390008091C10084608093AF
:10245000C1008091C10082608093C1008091C10061
:1024600081608093C1008091C30081608093C3002C
:102470008091C00082608093C0008091C200816022
:102480008093C20080917A00846080937A0080916A
:102490007A00826080937A0080917A0081608093D4
:1024A0007A0080917A00806880937A0010923F02CF
:1024B00010922F02109231028091D7008160809398
:1024C000D70080EA8093D80089B5806189BD89B53D
:1024D000826089BD09B400FEFDCF61E070E080E05C
:1024E00090E00E94340B8091D8008F7C80618093B3
:1024F000D8008091E000807F8093E0008091E1002F
:102500008E7E8093E1008DE08093E200559A209AC0
:1025100081EC80937C0085B1806F85B984B1877E22
:1025200084B984B1876E84B95E9A5F988AB1806DF0
:102530008AB9769A6E9881B3806F81BB899880B38F
:102540008D7080BB80E58CBD81E08DBD85E090E025
:102550000E94EC0B5F9A85E090E00E94EC0B5E9885
:102560005C98ECE1FBE084918EBD00000DB407FEA9
:10257000FDCF31962BE0E932F207A9F75C9A81E8AA
:1025800080936400809165008160809365000E9463
:10259000000B0E946E0A87FF15C05C9885EA8EBD0D
:1025A00000000DB407FEFDCF5C9A2E982F982D9851
:1025B0008091640080628093640081E083BF88958D
:1025C00013BEFCCF0E946E0A82FF48C02D980E9465
:1025D0006E0A84788438E1F40E946C0A88EC90E0FA
:1025E0000E94EC0B2F9882E090E00E942F1A8F3F00
:1025F00029F06FEF82E090E00E94371A84EF91E0BB
:102600000E94EC0B2F9A0E946E0A84788438D9F3CA
:102610000E946E0A84718431E1F40E946C0A88EC95
:1026200090E00E94EC0B2E9882E090E00E942F1A1E
:10263000882329F060E082E090E00E94371A84EF5E
:1026400091E00E94EC0B2E9A0E946E0A84718431F4
:10265000D9F388EC90E00E94EC0BB4CF0E946C0A96
:1026600082E090E00E94110E882309F44BC03E9A4C
:102670003F9A81E080935B0181E090E00E94110E1F
:10268000182F147081FF0CC011112E98C1EFDFEFCD
:102690000E946E0A86FF3BC02E9A2F9A0E946C0AF7
:1026A00082E390E00E94EC0B0E946E0A8111F8CF49
:1026B00080E180930201C6E34C2E512C612C712CD9
:1026C000DAE02D2E312C2FB7F89480915C01909197
:1026D0005D01A0915E01B0915F012FBF209161016A
:1026E000382F321B20916001222309F468C03093F7
:1026F00062011092600180E090E0892B21F30E943A
:102700000000E1CF10925B013E983F98B5CF1123B6
:1027100029F0C430D10511F42E9A2F9881E00E943F
:10272000DB0700E128E54CE65AE0BE0184E190E0D9
:102730000E9412070E94000B8FE090E00E94EC0BB9
:102740002196C931D10509F0A3CF112311F02F9A99
:102750002D9880E991E00E94EC0B0E946C0A81E0C8
:1027600090E00E94110E80FF9BCF8AE090E00E94D3
:10277000110E9FEF980F9E3F08F092CF22E330E0BA
:1027800030936E0120936D0128E330E030937001A7
:1027900020936F01CBE0D0E0682F87EB96E00E949A
:1027A000760ACE010E94110E2196C131D105A1F702
:1027B0000E94000B88EE93E00E94EC0B71CF2091F9
:1027C0000201321748F43F5F321708F094CF81E0DE
:1027D00083BF889513BE8FCF31E030936001809323
:1027E0006101809171019091720101969093720143
:1027F00080937101809162012817C0F55D98109156
:10280000710100917201812F902F6AE070E00E94A7
:10281000A81AEC01892B61F4809128029091290279
:10282000892B31F581E090E0909329028093280272
:1028300080E00E94030B1092700110926F011092C1
:102840006E0110926D0180912602909127028130D5
:10285000910509F4D3C088F08230910509F4F3C4DE
:10286000039709F47CC00E94000B45CF5D9AC7CF47
:102870001092290210922802DBCF0E94F70A83E00F
:1028800090E00E945C0D8EE190E090936E01809349
:102890006D018FE090E09093700180936F0166E48A
:1028A0007DE087EB96E00E944C098DE290E09093EA
:1028B0006E0180936D019093700180936F01809100
:1028C000710180FD10C06FE37DE087EB96E00E9410
:1028D0004C0908E028E047E35DE06DE270E08DE43C
:1028E00090E00E94120788E00E94EC0A882309F415
:1028F000BACF809164008E7F8093640080917A00CB
:10290000806480937A0080917A0086FDFCCF0091EC
:102910007800109179000E940F0B30E020E09801C0
:1029200011270027600F711F821F931F20916400E1
:10293000216020936400611571058105910511F0F6
:102940000E94261A0E940A0D83E090E090932702CD
:102950008093260281E29DE00E94590A84CF0E9462
:10296000F70A81E090E00E945C0D8091280290912E
:1029700029020097C1F5609105017091060106E0FA
:102980002EE043E15DE088E090E00E94120782E3E0
:1029900090E090936E0180936D018EE190E09093B2
:1029A000700180936F0110FD06C06EEF7CE087EB35
:1029B00096E00E944C098091240290912502019694
:1029C0009093250280932402893791050CF44BCF14
:1029D00081E090E0909327028093260210922502D6
:1029E0001092240240CF019791F6609105017091F9
:1029F000060106E02EE045E05DE0C5CF0E94F70A43
:102A000080E80E94EC0A209105013091060188239C
:102A100009F41CC2223031050CF41CC28EEF9FEF6A
:102A200090932302809322028091050190910601E8
:102A3000181619060CF42BC21092230210922202CF
:102A400081E090E09093060180930501812F902F03
:102A500065E070E00E94A81A892B71F4809105014D
:102A6000909106012091220230912302820F931F40
:102A70009093060180930501812F902F6CE370E005
:102A80000E94A81A892B49F480912002909121027A
:102A90000196909321028093200284E00E94EC0A28
:102AA000882309F43FC0EEEEF1E090E080E024815D
:102AB0002111FBC125E0289FF001299FF00D112471
:102AC000E251FE4F8DE090E091838083809105017B
:102AD0009091060103969383828381E084838091A1
:102AE00071008D7F8093710010926C0180E992E0FB
:102AF00090936B0180936A019093690180936801C0
:102B000082EC91E090939102809390023092930234
:102B10002092920280E090E8909395028093940234
:102B20000E94B109AEEEAA2EA1E0BA2EE50188817D
:102B300099818F3791050CF0BFC12C81222309F4B4
:102B4000BBC1039699838883259662E0C032D6077D
:102B500071F7FEEECF2EF1E0DF2E11E0ECEB8E2EC2
:102B6000E1E09E2E7401F701808191819C01225049
:102B70003109F60140815181BA016D5F7F4F2617FF
:102B800037070CF043C00896481759070CF03EC0B1
:102B9000F70142815381CA010297F6016281738174
:102BA000681779079CF1485F5F4F6417750774F5E4
:102BB0004481442359F1E6E7F1E050E040E06681CA
:102BC00061117CC167E0649FF001659FF00D1124E5
:102BD000EA58FE4F168331832083938382831582C4
:102BE0001482F70114821182108213821282F6017C
:102BF000148280EF9CE00E94590A809120029091FB
:102C0000210244969093210280932002F5E0EF0E7A
:102C1000F11C2EEEE21621E0F20609F0A4CF65E0E9
:102C2000C60ED11CCC15DD0509F098CF81E090E0EF
:102C30000E945C0D809171019091720164E170E0DD
:102C40000E94A81A892B09F5ECEBF1E090E080E0F6
:102C5000248121113BC125E0289FE001299FD00D4F
:102C60001124C454DE4F8FE790E0998388830E943B
:102C7000D719A30192010E94451A6F5F7F4F8F4FB2
:102C80009F4F7B836A8381E08C83CCEBD1E088818A
:102C90009981893FEFEF9E070CF42AC12C812223F2
:102CA00009F426C1029799838883209128023091E4
:102CB00029022115310509F010C16A817B8108E0E4
:102CC00028E048EE5CE00E9412072596EC16FD060F
:102CD000F1F6FF24F39402E010E0F4018081918189
:102CE0000197459768F58281938120910501309184
:102CF0000601A9014A5F5F4F841795070CF50896F6
:102D000028173907ECF480917501811119C088E703
:102D100090E09093740180937301F092750180911B
:102D2000030190910401823091050CF4E3C00197F6
:102D3000909304018093030182ED9CE00E94590A64
:102D400095E0890E911C8C169D0639F680917301D1
:102D500090917401181619060CF0D3C020917501DA
:102D6000222309F4CEC001979093740180937301DC
:102D7000809128029091290220917501222309F463
:102D8000D3C0009709F0C0C08091710180FD0CC0D4
:102D9000609105017091060106E02EE043E15DE0DF
:102DA00088E090E00E941207809173019091740175
:102DB000863791054CF08091260290912702029768
:102DC00019F081E00E94030BA1E0F50184818823C2
:102DD00009F4B1C0828193818034910508F0ABC0C1
:102DE00020813181A9014E5F5F4F4238510508F0C3
:102DF000A2C0A90137FF02C050E040E02D5F3F4F65
:102E00002138310514F020E830E0241BBC01677044
:102E100077273A2F01C0330F6A95EAF763E095955B
:102E200087956A95E1F79695982F882797958795C6
:102E3000480F591FFA01EE55FD4F215008F47BC091
:102E40008191EF012197832B8883F7CF29333105B7
:102E50000CF0EACDCD2B61F48091220290912302F7
:102E6000833091052CF401969093230280932202E3
:102E700080912202909123028A3091050CF0D4CDEA
:102E8000280F391F3093060120930501CDCDCA9735
:102E90000CF4DCCD89E390E090930601809305016A
:102EA0001092230210922202D1CD019635968A30DB
:102EB000910509F0FCCD36CE1C8246CE4F5F5F4FA8
:102EC00037964A30510509F07ACE8BCE0196359669
:102ED0008A30910509F0BCCED8CE2130310509F0F9
:102EE000F4CE6A817B8108E028E040EE5CE0EBCE26
:102EF0001C82EBCE109327020093260288EB9CE005
:102F00001DCF1092750134CF019709F04DCF8091FC
:102F1000710180FD49CF609105017091060106E0C5
:102F20002EE045E05DE03CCF009709F431CF0197FA
:102F300009F03ACFF0CFF5E0AF0EB11CAC14BD04F0
:102F400009F043CF86E7E82E81E0F82E9CEBC92EEE
:102F500091E0D92EE7018E81882309F16A817B8176
:102F600088819981EC81FD81ED30F10508F05AC12D
:102F7000E254F84E0CE02CE00C94D01ACB17EE186B
:102F8000F118F418F718FA18FD18001903190619A2
:102F900009190C190F1940EA5CE00E9412072796E4
:102FA000CC16DD06C1F68091710180FD10C0F701DD
:102FB000848195818C3091050CF043C101969583F5
:102FC0008483F7E0EF0EF11CCE15DF0581F785E570
:102FD00090E09093B0068093AF069093AE068093F6
:102FE000AD06CAE3D0E0D093B206C093B10665E760
:102FF0007BE082EA96E00E944C098EE690E0909396
:10300000B0068093AF069093AE068093AD06D09342
:10301000B206C093B10680910301909104016EE65F
:103020007BE08230910559F061E77BE083309105C8
:1030300031F066E67BE0019711F46CE67BE082EA12
:1030400096E00E944C0982E090E09093B006809355
:10305000AF069093AE068093AD06CAE3D0E0D0935E
:10306000B206C093B10660E67BE082EA96E00E9479
:103070004C098EE190E09093B0068093AF06909358
:10308000AE068093AD06D093B206C093B106C09051
:103090002002D09021020D2C000CEE08FF084AE01F
:1030A000C701B601F7FE0DC06DE282EA96E00E940C
:1030B0005F0C66277727CB016C197D098E099F0964
:1030C0004AE00E94C30D209120023091210280919C
:1030D000A0029091A10282179307BCF50E94D71914
:1030E0002AEF30E040E050E00E94451ADC01CB01BD
:1030F00086509F4FAF4FBF4F2091A0023091A10249
:10310000820F931F9093A1028093A00210916701F8
:10311000C0916501D091660111111FC081E08093BB
:1031200067018FE790E090936401809363010E94B0
:10313000D719A30192010E94451A6F5F7F4F8F4FED
:103140009F4F709366016093650110916701C09174
:103150006501D09166011123A1F0809163019091E6
:103160006401893F2FEF920764F002979093640106
:103170008093630108E028E043E35BE0BE010E9426
:10318000120780916301909164010197459708F0BF
:103190006ACB80910501909106019C012A5F3F4F07
:1031A000C217D3070CF05FCB28968C179D070CF045
:1031B0005ACB112309F457CB80910301909104015C
:1031C000833091050CF04FCB0196909304018093CE
:1031D00003011092670189E29BE0BECB48E85CE006
:1031E000DCCE40E75CE0D9CE48E55CE0D6CE40E4FA
:1031F0005CE0D3CE48E25CE0D0CE40E15CE0CDCEF6
:1032000048EF5BE0CACE40EE5BE0C7CE48EC5BE047
:10321000C4CE40EB5BE0C1CE48E95BE0BECE40E807
:103220005BE0BBCE90936E0180936D017093700153
:1032300060936F016AE77BE087EB96E00E944C09A0
:10324000AECE1682BECE0E94F70A83E090E00E94C6
:103250005C0D87E290E090936E0180936D01309257
:10326000700120926F0166E57BE087EB96E00E949B
:103270004C0908E028E04EE45BE062E370E084E1A2
:1032800090E00E94120780E290E090936E0180939C
:103290006D01C2E3D0E0D0937001C0936F0168E488
:1032A0007BE087EB96E00E944C0928E040E45BE07D
:1032B00062E370E087E490E00E94120782E590E00C
:1032C00090936E0180936D01D0937001C0936F0154
:1032D0006BE37BE087EB96E00E944C0980E20E9462
:1032E000EC0A882369F00E940A0D81E29DE00E94A9
:1032F000590A83E090E09093270280932602B3CA94
:1033000080E40E94EC0A882309F4ADCA10922702D7
:1033100010922602A8CA8F929F92AF92BF92CF922C
:10332000DF92EF92FF92CF93DF93EC016881798176
:103330008A819B81611571058105910521F464E203
:1033400079ED8BE597E02DE133EF41E050E00E940D
:10335000451A49015A019B01AC01A7EAB1E40E9458
:10336000641A6B017C01ACEEB4EFA50194010E94DC
:10337000721AC60ED71EE81EF91EF7FE06C081E0BF
:10338000C81AD108E10880E8F80AC882D982EA821E
:10339000FB82C701B6019F77DF91CF91FF90EF903D
:1033A000DF90CF90BF90AF909F908F9008958F92B5
:1033B0009F92AF92BF92CF92DF92EF92FF92609175
:1033C00013017091140180911501909116016115FE
:1033D00071058105910521F464E279ED8BE597E0B3
:1033E0002DE133EF41E050E00E94451A49015A01B6
:1033F0009B01AC01A7EAB1E40E94641A6B017C0155
:10340000ACEEB4EFA50194010E94721AC60ED71E4D
:10341000E81EF91EF7FE06C081E0C81AD108E108CF
:1034200080E8F80AC0921301D0921401E0921501CD
:10343000F0921601C701B6019F77FF90EF90DF90E1
:10344000CF90BF90AF909F908F900895609313019D
:103450007093140180931501909316010895F999C2
:10346000FECF92BD81BDF89A992780B50895262F89
:10347000F999FECF1FBA92BD81BD20BD0FB6F89459
:10348000FA9AF99A0FBE01960895052E97FB1EF43D
:1034900000940E945C1A57FD07D00E94771A07FC1F
:1034A00003D04EF40C945C1A5095409530952195BC
:1034B0003F4F4F4F5F4F0895909580957095619560
:1034C0007F4F8F4F9F4F08950E94991AA59F900D8F
:1034D000B49F900DA49F800D911D11240895B7FFF6
:1034E0000C94641A0E94641A821B930B0895A1E243
:1034F0001A2EAA1BBB1BFD010DC0AA1FBB1FEE1F6E
:10350000FF1FA217B307E407F50720F0A21BB30BB8
:10351000E40BF50B661F771F881F991F1A9469F734
:1035200060957095809590959B01AC01BD01CF0190
:103530000895A29FB001B39FC001A39F700D811D8C
:103540001124911DB29F700D811D1124911D0895AC
:10355000AA1BBB1B51E107C0AA1FBB1FA617B707B9
:1035600010F0A61BB70B881F991F5A95A9F78095D5
:103570009095BC01CD01089597FB072E16F4009499
:1035800007D077FD09D00E94A81A07FC05D03EF4A9
:10359000909581959F4F0895709561957F4F0895FF
:1035A000EE0FFF1F0590F491E02D0994F894FFCFE2
:1035B0007F001003002000FFFFFFFF00E10000007C
:1035C0000000000100000000C18081000000000038
:1035D00000003908670B5A084F08A0085E087C08ED
:1035E000000000005F0C7009C00DBF0D000000005E
:0835F000760A7009C00DBF0D41
:00000001FF
