:100000000C94AC060C94D4060C94D4060C94D40630
:100010000C94D4060C94D4060C94D4060C94D406F8
:100020000C94D4060C94D4060C94100D0C947F0DF3
:100030000C94D4060C94D4060C94D4060C94D406D8
:100040000C94D4060C94D4060C94D4060C94D406C8
:100050000C94D4060C94D4060C94D4060C94121070
:100060000C94D4060C94D4060C94D4060C94D406A8
:100070000C94D4060C94D4060C94D4060C94D40698
:100080000C94B10F0C94D4060C94D4060C94D406A2
:100090000C94D4060C94D4060C94D4060C94D40678
:1000A0000C94D4060C94D4060C94D40600B0000032
:1000B000A170E150964F26900F1D070C0096690025
:1000C0004AE44A0048444000806810000F99FB8FC2
:1000D0009DBDBBFB77D4D4DF1F1A1AFE7F5D5DFF89
:1000E000805A0000A0A4AA0010BA3400FF5953F3AC
:1000F000FF9B9B9EFFB9B996FF9595D19FF4940FF6
:10010000FC295F91FF1838F8FF9294FFFF95D5F70F
:10011000BFB5DDD7F18F81F1F788C8F779C6467989
:1001200009FD9B090196F80082818280507162006E
:100130007756560076763700A2B77301077206002D
:100140007827500073347400775176007F55F7009C
:1001500047711000324772007364730015A2750076
:1001600061679400009F6060F4F2F6F20000000006
:10017000003E5B4F5B3E3E6B4F6B3E1C3E7C3E1C2D
:10018000183C7E3C181C577D571C1C5E7F5E1C0073
:10019000183C1800FFE7C3E7FF0018241800FFE72A
:1001A000DBE7FF30483A060E2629792926407F05ED
:1001B0000507407F05253F5A3CE73C5A7F3E1C1C03
:1001C00008081C1C3E7F14227F22145F5F005F5FC3
:1001D00006097F017F006689956A606060606094AF
:1001E000A2FFA29408047E040810207E20100808B4
:1001F0002A1C08081C2A08081E101010100C1E0CBF
:100200001E0C30383E3830060E3E0E060000000050
:100210000000005F00000007000700147F147F1437
:10022000242A7F2A1223130864623649562050007C
:1002300008070300001C2241000041221C002A1C68
:100240007F1C2A08083E0808008070300008080853
:100250000808000060600020100804023E51494573
:100260003E00427F400072494949462141494D3391
:100270001814127F1027454545393C4A49493141F8
:10028000211109073649494936464949291E0000C6
:10029000140000004034000000081422411414141B
:1002A0001414004122140802015909063E415D5907
:1002B0004E7C1211127C7F494949363E4141412210
:1002C0007F4141413E7F494949417F090909013E3A
:1002D000414151737F0808087F00417F4100204061
:1002E000413F017F081422417F404040407F021C73
:1002F000027F7F0408107F3E4141413E7F0909098A
:10030000063E4151215E7F09192946264949493255
:1003100003017F01033F4040403F1F2040201F3F1B
:100320004038403F631408146303047804036159A0
:10033000494D43007F4141410204081020004141E2
:10034000417F04020102044040404040000307088E
:100350000020545478407F2844443838444444288A
:10036000384444287F385454541800087E09021831
:10037000A4A49C787F0804047800447D40002040B9
:10038000403D007F1028440000417F40007C0478FD
:1003900004787C080404783844444438FC18242445
:1003A0001818242418FC7C080404084854545424C5
:1003B00004043F44243C4040207C1C2040201C3C42
:1003C0004030403C44281028444C9090907C446439
:1003D000544C4400083641000000770000004136CC
:1003E000080002010204023C2623263C1EA1A16152
:1003F000123A4040207A3854545559215555794184
:100400002154547841215554784020545579400C5A
:100410001E5272123955555559395454545939553B
:100420005454580000457C410002457D420001457E
:100430007C40F0292429F0F0282528F07C545545EB
:10044000002054547C547C0A097F4932494949327E
:100450003248484832324A4848303A4141217A3A93
:1004600042402078009DA0A07D39444444393D405D
:1004700040403D3C24FF2424487E4943662B2FFC0A
:100480002F2BFF0929F620C0887E090320545479B8
:10049000410000447D413048484A32384040227A89
:1004A000007A0A0A727D0D19317D2629292F282606
:1004B0002929292630484D4020380808080808080E
:1004C0000808382F10C8ACBA2F102834FA00007B67
:1004D000000008142A142222142A1408950022006D
:1004E00095AA005500AAAA55AA55AA000000FF0027
:1004F000101010FF00141414FF001010FF00FF1064
:1005000010F010F0141414FC001414F700FF000095
:10051000FF00FF1414F404FC141417101F10101F14
:10052000101F1414141F00101010F0000000001F02
:10053000101010101F10101010F010000000FF100D
:100540001010101010101010FF10000000FF140009
:1005500000FF00FF00001F10170000FC04F414143B
:100560001710171414F404F40000FF00F714141407
:1005700014141414F700F7141414171410101F1087
:100580001F141414F4141010F010F000001F101FAA
:100590000000001F14000000FC140000F010F01018
:1005A00010FF10FF141414FF141010101F0000008F
:1005B00000F010FFFFFFFFFFF0F0F0F0F0FFFFFF93
:1005C0000000000000FFFF0F0F0F0F0F38444438EA
:1005D000447C2A2A3E147E02020606027E027E0225
:1005E00063554941633844443C04407E201E200644
:1005F000027E020299A5E7A5991C2A492A1C4C7281
:1006000001724C304A4D4D303048784830BC625A07
:10061000463D3E494949007E0101017E2A2A2A2A97
:100620002A44445F444440514A444040444A514073
:100630000000FF0103E080FF000008086B6B083634
:1006400012362436060F090F0600001818000000A5
:100650001010003040FF0101001F01011E00191D94
:100660001712003C3C3C3C0000000000F0F89C8E5F
:100670008783878E9CF8F00000FEFF0303030303CB
:10068000070EFCF80000FEFF0303030303070EFC44
:10069000F80000FFFF00000000000000FFFF000066
:1006A000FEFF8383838383C7EE7C380000F8FC0E53
:1006B00007030303070EFCF800003F7FE0C08080C3
:1006C000C0E07F3FFFFF01010101010101FFFF00C9
:1006D00000FFFF0C0C0C0C1C3E77E3C100007FFFF9
:1006E000C0C0C0C0C0E0703F1F00001F3F70E0C02E
:1006F000C0C0E0703F1F00007FFFC1C1C1C1C1E3A6
:10070000773E1C00001F3F70E0C0C0C0E0703F1F7C
:10071000000000000001FFFF01000000D5F08D1473
:10072000A1C881CFD9F1AF200000000000006060B7
:1007300000000000000000000000000000000000B9
:1007400000000000006090906000000000000000C9
:100750000000000000000000000000609808040491
:100760000898600000000000010102020101000081
:100770000000F0980C060202060C98F00000000140
:100780000306040406030100000000609808040446
:100790000898600000000000010102020101000051
:1007A0000000000060900808906000000000000059
:1007B00000000101000000000000F0980C66929219
:1007C000660C98F000000001030604040603010013
:1007D0000000F0980C066262060C98F00000000120
:1007E00003060404060301000000F0980C06020250
:1007F000060C98F000000001030604040603010043
:1008000000000060980804040898600000000000E0
:1008100001010202010100000000000060900808D0
:1008200090600000000000000000010100000000D6
:1008300000000000006090906000000000000000D8
:1008400000000000000000000000000000006060E8
:100850000000000000000000000000000000000098
:100860000093027D0000007D000B027D004A017DA7
:100870000000007D000601F4010080B8014B0088F3
:10088000014B005D014B00008018387C32723C380F
:100890001818383C72327C38181F004B001F004B70
:1008A000001F004B0000800000141E0C1E1E1E1EA8
:1008B0001E1C1C080000000A1E0C1E1E1E1E1E1CF4
:1008C0001C08005D01640088016400EE0164004BB7
:1008D0000264001003C80000807EC3B99595B9C3B7
:1008E0007E00000008000000000000000000000082
:1008F00000000000002000000000000000000000D8
:1009000000000000000000000010000000000000D7
:100910000000000000004000000000000000000097
:100920000000008000000000000010000000000037
:100930000000000000000000000020000000000097
:100940000000000080000000000200000000000025
:1009500000040000000000800000000020000000F3
:100960000000000000004000000000000200000045
:100970000000001000400000000200000000000025
:1009800000000008000000000000008000000000DF
:1009900000001000000000000000800000000010B7
:1009A000000000000000000000080000000000003F
:1009B0000000000000000200000000000000000035
:1009C0000000000000000000000000000100000026
:1009D0000000200000000000000000008000000077
:1009E00000000000000000000000000000400000C7
:1009F00000000000000000000400000000000000F3
:100A000000000400000000000000000000000000E2
:100A10002000000000000000000000000000004076
:100A200000000000002000000000000000000100A5
:100A300000000000100000000000000000000001A5
:100A40000000000000100002000000200000000074
:100A500000000000004000000000000000008000D6
:100A600000000000000008000000000080000000FE
:100A70000000000000010000001000000000000263
:100A800000000000008000000000000000000000E6
:100A900000000000000000000000800000000000D6
:100AA0000000000000000000004000000000000006
:100AB0000200000000000000020000000000002012
:100AC00000000000000080000000000000000000A6
:100AD00000000000000000000020000000000000F6
:100AE00000000000000000000040000000000000C6
:100AF00000000000000000000000000000080000EE
:100B000000000000000000000000000000000000E5
:100B100001000000000000000000000000000000D4
:100B200000000000000000000000000000000000C5
:100B30000000000200000000004000000000000073
:100B40000000000000000040000000000000000065
:100B50000100000000008000000000000000000014
:100B60000000000000002000000000000000000065
:100B70000000000002000000000000000000000073
:100B8000040000000000020000000000000000203F
:100B900000000000000002000080000000000000D3
:100BA0000000000001000000000000000020000024
:100BB0000000000000000000000020000000000015
:100BC000000400000000000000000000040000001D
:100BD0000000000080000000000000000000010094
:100BE0000000000000000000000000000000000005
:100BF00004000000000000000000001000000000E1
:100C00000000000010000000000000004000000094
:100C100000000000000000000000000000000008CC
:100C20000000000000000000004000000000000084
:100C30000000000100000000000020000000000093
:100C40008000000000000200000000000000000022
:100C50000000000000000000000000020000000092
:100C6000000000000000000800000000000000007C
:100C70000000040000000000000000000000000070
:100C80000000002000000000000000000000000044
:100C90000000000001000000000000000000000053
:100CA00000080000000000000000000040000000FC
:100CB0000000000001000000000000000000000033
:100CC0000000000000000000000000000400000020
:100CD00000000000000000200000020000000000F2
:100CE00000080B00020202000009040000010202D9
:100CF000000005240010010524010101042402065E
:100D000005240600010705810310004009040100C5
:100D1000020A0000000705020240000007058302E6
:100D20004000000403090412010002EF02014041E7
:100D300023368000010102030141726475696E6F00
:100D4000204C4C430041726475696E6F204C656F96
:100D50006E6172646F008F1011241FBECFEFDAE056
:100D6000DEBFCDBF11E0A0E0B1E0E2ECF6E302C0EF
:100D700005900D92A439B107D9F727E0A4E9B1E0B5
:100D800001C01D92A630B207E1F716E0CCEAD6E02A
:100D900004C02197FE010E94591BCB3AD107C9F725
:100DA0000E94DF100C945F1B0C9400008091A50141
:100DB00008954F925F926F927F928F929F92AF921F
:100DC000BF92CF92DF92EF92FF920F931F93CF9338
:100DD000DF9330E0F901E80FF91F1E161F060CF033
:100DE000A0C0803891050CF09CC0FB01E00FF11D04
:100DF0001E161F060CF095C0603471050CF091C0F2
:100E0000DB0177FF04C0AA27BB27A61BB70BA7707F
:100E1000BB27FB0177FD3796C3E0F595E795CA95AB
:100E2000E1F777FF07C0319768E070E0EB01CA1B7C
:100E3000DB0BDE01802E869486948694912C0770BD
:100E400019F0DFEF8D1A9D0ABF018A01AF01569597
:100E5000542F442757954795480F591F43515D4FCD
:100E6000860E971EE8E0F0E03F016A1A7B0A8616BC
:100E7000970609F456C06830710509F452C06F3FF7
:100E8000EFEF7E070CF443C07C01D0E0C0E05A01D4
:100E9000E0E8AE0EB11CF7FC2EC06F3F760709F4F8
:100EA0003DC0FE01E00FF11FE4916A01CC0EDD1E92
:100EB000F0E02F010A2E01C0440C0A94EAF7F60173
:100EC0005080452840821097B1F06730710599F045
:100ED000F801EC0FFD1FE4916501CC0EDD1EF0E082
:100EE0002F01062C02C0559447940A94E2F7F601AC
:100EF0005080452840822196FFEFEF1AFF0AC21763
:100F0000D3072CF4F0E8EF16F10409F0C4CF6F5FBB
:100F10007F4F020F131F40585F4FA9CF1097C1F6A4
:100F2000EACFDF91CF911F910F91FF90EF90DF906B
:100F3000CF90BF90AF909F908F907F906F905F9079
:100F40004F900895EDEEF2E0A0E0B8E000800EBC16
:100F50008111012C1197A0FDFDCF0192B9F70DB4BD
:100F60000895FC0180918C02882311F13FB7F89419
:100F700082E08093E9002091F200822F90E0181621
:100F8000190614F481E090E0882339F0289844E6AB
:100F900040938B024091F1004083222339F020914D
:100FA000F200211103C02BE62093E8003FBF089513
:100FB0008FEF9FEF08952FB7F89483E08093E900B7
:100FC0009091E800892F807295FF04C09091F20003
:100FD00080E4891B2FBF08958091830281110DC089
:100FE00082E080937F0284E08093800210928202EC
:100FF0001092810281E0809383028FE792E008954E
:10100000CF93DF931F92CDB7DEB76983DC01ED91FB
:10101000FC910280F381E02D41E050E0BE016F5F62
:101020007F4F09950F90DF91CF91089583E08093D2
:10103000E9008091F200882319F08AE38093E800A8
:1010400008950E94DB0790E00895CF93DF931F92ED
:10105000CDB7DEB7FC018485958597FD08C02FEFDD
:101060003FEF358724870F90DF91CF910895CE0110
:1010700001960E94B107019719F4898190E0F3CF9E
:101080008FEF9FEFF0CF0F931F93CF93DF931F92BC
:10109000CDB7DEB78C01FC018485958597FF0BC029
:1010A000CE0101960E94B107019771F4898190E009
:1010B000F80195878487F801848595850F90DF91E5
:1010C000CF911F910F9108958FEF9FEFF1CFFC010A
:1010D0008485958597FD0BC09FB7F89482E0809337
:1010E000E9008091F2009FBF90E0019608959FB7BC
:1010F000F89482E08093E9008091F2009FBF90E035
:1011000008954091790250917A02209177023091AE
:10111000780242175307B4F49091E8009570E1F318
:101120009091E80092FD19C08093F10080917902BE
:1011300090917A0201968F739927892B19F48EEF7B
:101140008093E8008091790290917A0201969093C1
:101150007A028093790281E0089580E00895DF9219
:10116000EF92FF920F931F93CF93DF93D82E8A01B4
:10117000EB017B01E40EF51ECE15DF0559F0D7FE1D
:1011800012C0FE0184910E94810821968111F4CF42
:101190000FEF1FEFC801DF91CF911F910F91FF90CB
:1011A000EF90DF9008958881EECF0F931F93CF9338
:1011B000DF931F92CDB7DEB782E0898342E450E02F
:1011C00061EE7CE080E80E94AF080E94EC07DC0141
:1011D00012960D911C910115110589F0D801ED9120
:1011E000FC910280F381E02DBE016F5F7F4FC8014B
:1011F000099597FD04C0F80100851185ECCF898120
:101200000F90DF91CF911F910F910895615030F0B1
:101210002091F100FC0120830196F8CF289884E604
:1012200080938B020895AF92BF92CF92DF92EF929C
:10123000FF920F931F93CF93DF936C017B018B0180
:10124000040F151FEB015E01AE18BF08C017D107D0
:1012500059F06991D601ED91FC910190F081E02D5A
:10126000C6010995892B79F7C501DF91CF911F91AF
:101270000F91FF90EF90DF90CF90BF90AF900895C7
:101280002091B101E091AF01F091B001CF01029640
:101290009093B0018093AF01222319F0859194912E
:1012A0000895808191810895CF92DF92EF92FF920D
:1012B000CF93DF930E944009811520E8920791F4B3
:1012C000809171008D7F80937100109291004698FB
:1012D000479810929E01DF91CF91FF90EF90DF90A1
:1012E000CF90089521E020939E01813020E892075D
:1012F00051F48091AD019091AE019093B001809333
:10130000AF010E94400997FD05C020919D01222355
:1013100009F454C020919C01211150C021E0209378
:101320009F01EC01DF77209709F04BC081E08093AB
:10133000A00146983FE9C32E3FE0D32EE12CF12CCB
:10134000CAEFD0E0E091EB02F091EC020995811137
:1013500003C081E08093A00180919F01882329F040
:101360008091A001882309F43FC047980E9440095A
:101370000097F1F19C01DE010E94221BDC01CB01F0
:1013800029E0B595A795979587952A95D1F710925D
:1013900090002AE020939100D0929900C09298008A
:1013A0008093A1019093A201A093A301B093A40103
:1013B000809171008260809371008DCF10929F01A7
:1013C000B0CF9E0150E040E060E472E48FE090E036
:1013D0000E94CE1A69017A0181E0C81AD108E10899
:1013E000F1081092A001AECF4699BFCF479ABECF69
:1013F0008FEF9FEFDC01CBCF9C01E1E7F0E0908124
:101400009D7F908381E08093B1013093B001209360
:10141000AF013093AE012093AD010C9454092D9A85
:1014200008958FB18095807F669B88601C9B846047
:101430000895AF92BF92CF92DF92EF92FF920F93F7
:101440001F93CF93DF936D3079F0C091B401D091A9
:10145000B5016A30B1F41092B3011092B20128962E
:10146000D093B501C093B40181E090E0DF91CF91BA
:101470001F910F91FF90EF90DF90CF90BF90AF90B2
:1014800008954091B2015091B30185E0689FF00149
:101490001124E459FE4F9A01C12C80E1E82EA5E009
:1014A00070E0CA1621F0CF0101967491FC0110E0A2
:1014B00000E0B72FB170DB2E20383105D0F4CE011B
:1014C000800F911F80349105A0F461E081FD64E0FC
:1014D00080FD660F82FD6295887FE89ED001112411
:1014E000A20FF62EA351BD4F8C91DD20A9F0862BC3
:1014F0008C9376950F5F1F4F08301105D1F6C3947A
:101500002F5F3F4F86E0C812CACF4A5F5F4F5093AC
:10151000B3014093B201A8CFF0948F21E9CF90910D
:101520009B01982329F490919A01982381E009F472
:1015300080E0089580919A0180939B010E94110A96
:1015400080939A01089580E00C94A207EDEEF2E0FA
:1015500081118FEF00248193819381938193039470
:10156000D1F708953FB7F894809196019091970133
:10157000A0919801B091990126B5A89B05C02F3F75
:1015800019F00196A11DB11D3FBFBA2FA92F982FA9
:101590008827BC01CD01620F711D811D911D42E0A4
:1015A000660F771F881F991F4A95D1F708958F926C
:1015B0009F92AF92BF92CF92DF92EF92FF926B0118
:1015C0007C010E94B20A4B015C01C114D104E10408
:1015D000F104B9F00E94B20A681979098A099B09D5
:1015E000683E73408105910580F321E0C21AD1085D
:1015F000E108F10888EE880E83E0981EA11CB11C5A
:10160000E4CFFF90EF90DF90CF90BF90AF909F908E
:101610008F9008958F929F92AF92BF92CF92DF9258
:10162000EF92FF920F931F93CF93DF936C017B0197
:101630008A0180911201882309F45CC080918C0298
:10164000882309F457C080917E0280FF05C08091F5
:10165000E00082608093E000E801B12C8AEFA82EC0
:1016600093E0892E2AE3922E209711F4BB20D9F122
:101670000E94DB0781110AC0AA94AA20D9F161E077
:1016800070E080E090E00E94D70AEECF8C171D0634
:1016900011F00CF08C2F9FB7F8948092E900209104
:1016A000E80025FD02C09FBFDFCF282F30E0C21B1E
:1016B000D30BF701815020F041914093F100FACF14
:1016C000E20EF31EBB2021F09092E800B12CEBCF8C
:1016D0008091E80085FDE7CF9092E800BB24B394A9
:1016E000209709F3F3CF5D9884E680937D0210166E
:1016F00011063CF081E090E0F6019383828310E0D4
:1017000000E0C801DF91CF911F910F91FF90EF9002
:10171000DF90CF90BF90AF909F908F900895BC01C5
:1017200090E080E00C94D70A6F927F928F929F9204
:10173000AF92BF92CF92DF92EF92FF920F931F93DF
:10174000CF93DF934C017B01C22F102F98E0A92E7D
:10175000B12C642E669466946694712CCA018770CD
:101760009927892B79F5D40117962D913C91C701C2
:101770009927B9010E94451B269DF001279DF00D78
:10178000369DF00D11248E0F9F1FD4011596ED91FB
:10179000FC91E80FF91F2081111112C0C095C223DE
:1017A000C083DF91CF911F910F91FF90EF90DF9059
:1017B000CF90BF90AF909F908F907F906F90089543
:1017C000C22BEECFD0E04770C42ED12C83E0660C44
:1017D000771C8A95E1F79E0101C0220F4A95EAF72E
:1017E000012FA301B701C4010E94940BA301485F1C
:1017F0005F4FC5018C199D0902C0D595C7958A9583
:10180000E2F7A7CF5F926F927F928F929F92AF92F3
:10181000BF92CF92DF92EF92FF920F931F93CF93DD
:10182000DF93EC016A30F1F48D859E859C878B8770
:101830008C892F853889820F932F911D988B8F87E4
:1018400081E090E0DF91CF911F910F91FF90EF9099
:10185000DF90CF90BF90AF909F908F907F906F90D0
:101860005F900895AB84BC84693031F429E0A20E06
:10187000B11CBC86AB86E4CF3DEFA3163FEFB306A9
:101880000CF45DC08F819885A816B9060CF057C07E
:10189000CF84D8888DEFC8168FEFD8060CF44FC0D0
:1018A00089859A85C816D9060CF049C0603208F4BB
:1018B0006FE780EE860F9FE9960F9A3118F49FEF3D
:1018C000C91AD90A8C3011F08B3119F42FEFC21AD2
:1018D000D20A869534E0839FC00111249C012455CF
:1018E0003F4F7901912C812C162F1170F701E80DD3
:1018F000F91D549011112DC0352D3F70532E350117
:10190000680C791C8C81882361F001E089899A89AF
:10191000892B09F000E02FE0A601B301CE010E945F
:10192000940B0989252DA601B301CE010E94940BC9
:101930008FEF881A980A94E089169104B9F68B897A
:1019400090E004962B853C85820F931F9C878B87A4
:1019500077CF52948FE05822D2CF089590E080E064
:101960000895FB0101900020E9F73197AF01461B74
:10197000570BDC01ED91FC910280F381E02D09947D
:101980008F929F92AF92BF920F931F93CF93DF934B
:10199000CDB7DEB7A1970FB6F894DEBF0FBECDBFAF
:1019A00019A2423008F44AE08E010F5D1F4F842EC9
:1019B000912CB12CA12CA50194010E94001BE62FB3
:1019C000B901CA01EA3044F5E05DD801EE938D011A
:1019D000232B242B252B79F790E080E0109769F0DA
:1019E000FD0101900020E9F73197AF014A1B5B0B25
:1019F000BD018DEE96E00E941309A1960FB6F894F2
:101A0000DEBF0FBECDBFDF91CF911F910F91BF9071
:101A1000AF909F908F900895E95CD7CF0C94B81A3F
:101A20001F920F920FB60F9211248F939F93809164
:101A3000E1009091E100937F9093E10083FF0FC05C
:101A40001092E90091E09093EB001092EC0092E389
:101A50009093ED0010928C0298E09093F00082FF3A
:101A600022C093E09093E9009091F200992319F03D
:101A70009AE39093E80090917D02992341F0909130
:101A80007D02915090937D02911101C05D9A9091D9
:101A90008B02992341F090918B02915090938B028D
:101AA000911101C0289A84FF18C08091E2008E7EB7
:101AB00081608093E2008091E1008F7E8093E1005D
:101AC00080917E028E7E806180937E029F918F91B5
:101AD0000F900FBE0F901F90189580FFF7CF809149
:101AE000E2008E7E80618093E2008091E1008E7E34
:101AF0008093E10080917E028E7E8160E5CF1F920F
:101B00000F920FB60F921124CF92DF92EF92FF92B5
:101B10000F931F932F933F934F935F936F937F93F5
:101B20008F939F93AF93BF93EF93FF93CF93DF93E5
:101B3000CDB7DEB76C97DEBFCDBF1092E9008091C4
:101B4000E80083FF25C068E0CE0145960E940609A3
:101B500082EF8093E8008D8987FF39C09091E8007B
:101B600090FFFCCF982F907609F034C19E894F8961
:101B7000588D2F89F88C911131C0803861F5809192
:101B80007C028093F1001092F1008EEF8093E800C8
:101B90006C960FB6F894DEBF0FBECDBFDF91CF912C
:101BA000FF91EF91BF91AF919F918F917F916F9135
:101BB0005F914F913F912F911F910F91FF90EF9067
:101BC000DF90CF900F900FBE0F901F9018959EEF53
:101BD0009093E800C7CF1092F100D5CF913059F41F
:101BE0008111D3CF4130510581F680917C028D7FE8
:101BF00080937C02CACF933049F48111C6CF413023
:101C0000510519F680917C028260F2CF953041F443
:101C10008091E80080FFFCCF20682093E300B5CFDF
:101C2000963009F0A9C00B8D1C8D22E01092E900BE
:101C300010927A0210927902F2122EC0109278025B
:101C4000109277020E94D5081F8299E09983FA8248
:101C500091E09E8390EA98879AEF99872091790284
:101C600030917A02275F3F4F3C832B838D83109204
:101C7000E90010927A021092790210937802009390
:101C8000770249E050E0BE016F5F7F4F80E00E9425
:101C9000AF080E94D50879CF10937802009377029D
:101CA0000E94EC07DC0112960D911C9101151105A3
:101CB00009F451C1D801ED91FC910480F581E02D2A
:101CC000BE016B5E7F4FC8010995009709F03EC1C8
:101CD000F80100851185EACFF3E0FF120EC08F896D
:101CE000882309F440C0823061F440E860E185E473
:101CF0009DE00E945C10811148CF81E28093EB004F
:101D000047CF813029F440E86BE089E39DE0F1CFD3
:101D1000833099F70E94EC07DC011296ED90FC905D
:101D20008E010F5F1F4F6801E114F10479F0D701B4
:101D3000ED91FC910680F781E02DB801C70109956E
:101D4000080F111DF701E084F184EECFD8011C9239
:101D5000F60101900020E9F73197BF016C197D0968
:101D600040E0C601C6CF63E27DE0FB01449150E054
:101D700080E80E94AF0809CF973009F4BECF9830B1
:101D800021F481E08093F10000CF993009F0FDCE7D
:101D9000837009F0B2CFE8E1F1E081E031E096E351
:101DA0002191222371F08093E9003093EB00DF0151
:101DB00011972C912093EC009093ED008F5F87306A
:101DC00079F78EE78093EA001092EA008F8980937A
:101DD0008C02DBCE8B8D9C8D1092E90010927A02E2
:101DE000109279029093780280937702898D811105
:101DF00092C08E899D89913A49F4813209F07DCF54
:101E000047E050E06BE071E080E0B3CF913209F041
:101E100074CF833269F48F89988DB0E0A0E080930D
:101E2000070190930801A0930901B0930A01ADCE78
:101E3000803269F48091E80082FFFCCF67E08BE09C
:101E400091E00E9406098BEF8093E8009ECE8232DB
:101E500009F09BCE8F8980931201EEEFFFE7859109
:101E600094918B3F9C4D51F1E0E0F8E080910B01A3
:101E700090910C01A0910D01B0910E01803B944016
:101E8000A105B105F1F48091120180FD1AC0EE3F69
:101E90008AE0F80789F587E797E791838083809147
:101EA000600080937B0288E19BE00FB6F894A895D0
:101EB000809360000FBE9093600067CEEEEFFAE073
:101EC000D5CF808191818737974709F05ECEA8955D
:101ED0008091600088618093600080917B02809394
:101EE0006000EE3F2AE0F20789F08091FE0A9091AF
:101EF000FF0A9183808349CE80819181873798073B
:101F000051F29093FF0A8093FE0AC5CF1092FF0A08
:101F10001092FE0A3ACE0E94EC07DC0112960D9157
:101F20001C910115110509F4E8CED801ED91FC9141
:101F30000190F081E02DBE016B5E7F4FC8010995D5
:101F4000811123CEF80100851185EBCF18161906F3
:101F50000CF41BCED2CEF1E0FF12BECE67E27DE0E4
:101F600004CF1F920F920FB60F9211242F933F931D
:101F70004F935F936F937F938F939F93AF93BF9391
:101F8000EF93FF938091A1019091A201A091A301F1
:101F9000B091A401892B8A2B8B2B09F440C080912E
:101FA000A00181110BC088B190E4892788B9809184
:101FB0009F01882319F088B1805888B98091A101C8
:101FC0009091A201A091A301B091A4011816190645
:101FD0001A061B069CF48091A1019091A201A09188
:101FE000A301B091A4010197A109B1098093A101B6
:101FF0009093A201A093A301B093A401FF91EF914C
:10200000BF91AF919F918F917F916F915F914F9110
:102010003F912F910F900FBE0F901F9018950E9427
:102020005409ECCF0F920FB68F939F93EF93FF93CA
:10203000809195018D5F8D3708F08D5780939501C4
:10204000E6EAF1E080818E4F808391819F4F9183FA
:1020500082818F4F828383818F4F8383E6E9F1E012
:1020600080818F5F808381818F4F818382818F4FB9
:10207000828383818F4F83838FB18F6066991C9B8E
:1020800088278F3681F480919401981B963068F0F0
:10209000E0E0F8E087E78083818388E18093600057
:1020A000F0936000FFCF90939401FF91EF919F9187
:1020B0008F910FBE0F901895EF92FF920F931F9381
:1020C000CF93DF93F82E192FE62E042F81E0860F91
:1020D000880F0E94810883E00E948108CF2DD12FB4
:1020E000EC0EFD2EF11CCE15DF05B9F007FF13C075
:1020F000FE0184910E948108182F80E00E948108CF
:10210000812321968111EFCFDF91CF911F910F9104
:10211000FF90EF9008958881EDCF81E0F5CFEDE855
:10212000F2E01382128288EE93E0A0E0B0E08483B4
:102130009583A683B78382E291E0918380838FEFBA
:102140009FEF95878487E2E0F7E01382128280E4B4
:1021500091E09183808386ED96E09093EC028093EA
:10216000EB0280E090E89093EA028093E9024698BF
:102170003E9A47983F9AEDEEF6E01382128284E38E
:1021800091E0918380838DEE92E09683858380E851
:1021900090E09087878380E490E09287818785E054
:1021A000848B81E0838B16861586108A17861486A9
:1021B000138681E090E0928B818B1482089578944D
:1021C00084B5826084BD84B5816084BD85B582603C
:1021D00085BD85B5816085BD80916E0081608093ED
:1021E0006E00109281008091810082608093810056
:1021F0008091810081608093810080918000816066
:102200008093800080919100826080939100809102
:102210009100816080939100809190008160809313
:1022200090008091C10084608093C1008091C100C2
:1022300082608093C1008091C10081608093C10061
:102240008091C30081608093C3008091C000826050
:102250008093C0008091C20081608093C200809111
:102260007A00846080937A0080917A008260809303
:102270007A0080917A00816080937A0080917A0060
:10228000806880937A0010928C0210927C021092E7
:102290007E028091D70081608093D70080EA80938E
:1022A000D80089B5806189BD89B5826089BD09B4CE
:1022B00000FEFDCF61E070E080E090E00E94D70A70
:1022C0008091D8008F7C80618093D8008091E0005D
:1022D000807F8093E0008091E1008E7E8093E1001A
:1022E0008DE08093E200559A209A81EC80937C00E7
:1022F00085B1806F85B984B1877E84B984B1876EDA
:1023000084B95E9A5F988AB1806D8AB9769A6E9820
:1023100081B3806F81BB899880B38D7080BB80E56D
:102320008CBD81E08DBD85E090E00E948F0B5F9AAF
:1023300085E090E00E948F0B5E985C98ECE1F7E0FE
:1023400084918EBD00000DB407FEFDCF319627E0CD
:10235000E932F207A9F75C9A81E8809364008091E2
:1023600065008160809365000E94A30A0E94110AA3
:1023700087FF15C05C9885EA8EBD00000DB407FE8E
:10238000FDCF5C9A2E982F982D98809164008062E2
:102390008093640081E083BF889513BEFCCF0E94C8
:1023A000110A82FF48C02D980E94110A847884384F
:1023B000E1F40E940F0A88EC90E00E948F0B2F98A6
:1023C00082E090E00E94B81A8F3F29F06FEF82E020
:1023D00090E00E94C01A84EF91E00E948F0B2F9A28
:1023E0000E94110A84788438D9F30E94110A8471FA
:1023F0008431E1F40E940F0A88EC90E00E948F0B78
:102400002E9882E090E00E94B81A882329F060E0BC
:1024100082E090E00E94C01A84EF91E00E948F0B4E
:102420002E9A0E94110A84718431D9F388EC90E0CD
:102430000E948F0BB4CF0E940F0A82E090E00E94AE
:102440000E0D882309F451C03E9A3F9A81E0809393
:10245000A50181E090E00E940E0D182F147081FFFD
:102460000CC011112E98C1EFDFEF0E94110A86FFF8
:1024700041C02E9A2F9A0E940F0A82E390E00E9498
:102480008F0B0E94110A8111F8CF80E18093000127
:10249000D7E0A6E34A2E512C612C712CAA24A394D8
:1024A000B12CC8E72C2E312CC5E08FB7F8944091A1
:1024B000A6015091A7016091A8017091A9018FBF59
:1024C0008091AB01942F981B892F9091AA01992399
:1024D00009F468C08093AC011092AA0180E090E0FA
:1024E000892B19F30E940000DFCF1092A5013E98BE
:1024F0003F98AFCF112329F0C430D10511F42E9AA3
:102500002F9881E00E94A20700E128E54CE656E002
:10251000BE0184E190E00E94D9060E94A30A8FE0E8
:1025200090E00E948F0B2196C931D10509F09DCF13
:10253000112311F02F9A2D9880E991E00E948F0BC2
:102540000E940F0A81E090E00E940E0D80FF95CF5F
:102550008AE090E00E940E0D9FEF980F9E3F08F0DA
:102560008CCF22E330E03093B3012093B20128E313
:1025700030E03093B5012093B401CBE0D0E0682F78
:1025800082E097E00E94190ACE010E940E0D21966A
:10259000C131D105A1F70E94A30A88EE93E00E9401
:1025A0008F0B6BCF90910001891748F48F5F8917CB
:1025B00008F094CF81E083BF889513BE8FCF81E070
:1025C0008093AA014093AB012091B6013091B701ED
:1025D0002F5F3F4F3093B7012093B6018091AC013C
:1025E000981780F55D980091B6011091B701C80168
:1025F0006AE070E00E94311B7C01892B51F48091CC
:10260000750290917602892BF9F4B0927602A0922D
:10261000750280E00E94A60A1092B5011092B401E2
:102620001092B3011092B2018091730290917402E2
:102630008130910509F4B7C164F4892B71F10E94CE
:10264000A30A4CCF5D9ACFCF1092760210927502FA
:10265000E0CF8230910509F423C6039781F72091DA
:102660007102309172028091050190910601223829
:10267000BFEF3B070CF421C12150310930937202A6
:10268000209371028238EFEF9E070CF47CC1019712
:1026900090930601809305011DC10E949A0AE09162
:1026A0007102F09172022091050130910601E23829
:1026B000AFEFFA07CCF0C80163E070E00E94311B75
:1026C000892B09F0A0C63197F0937202E093710252
:1026D0002238BFEF3B070CF49AC6215031093093E2
:1026E00006012093050113C037FF0AC08FE790E071
:1026F00090937202809371022238EFEF3E073CF014
:10270000C80163E070E00E94311B892B31F300FDAA
:1027100017C000E420E841EE58E070E060E08091EE
:102720007102909172020E94D90620E841EE58E0B1
:1027300070E060E080910501909106010E94D90649
:102740008EE190E09093B3018093B2018FE090E02E
:102750009093B5018093B40168E471E082E097E062
:102760000E94B10C8DE290E09093B3018093B2018E
:102770009093B5018093B4018091B60180FD10C0A3
:1027800066E571E082E097E00E94B10C08E028E085
:1027900049ED58E06DE270E08DE490E00E94D906CA
:1027A00088E00E948F0A882309F449CF8091640051
:1027B0008E7F8093640080917A00806480937A0099
:1027C00080917A0086FDFCCF00917800109179000D
:1027D0000E94B20A30E020E0980111270027600F24
:1027E000711F821F931F2091640021602093640059
:1027F000611571058105910511F00E94AF1A83E002
:1028000090E0909304018093030110927002109263
:102810006F0210926E0286E392E044E052E0EEEB2B
:10282000F1E024E032E02E173F0701F1DC011196C0
:102830001C921E9213961C921E92129714961C9232
:10284000DA0111961C921E9213961C921E921297F8
:1028500014961C92118210821382128215821482A5
:10286000168205964B5F5F4F3796DDCF8AE090E08A
:10287000909369028093680290936D0280936C023A
:1028800090936B0280936A021092BD011092BC017A
:102890001092BB011092BA0180E290E09093020185
:1028A0008093010183E090E090937402809373021F
:1028B00083EC98E00E94FC09C2CE97FFE8CE2FE798
:1028C00030E030937202209371028238FFEF9F074D
:1028D0000CF0DDCE780121E0E222FF2400FD17C0DC
:1028E00000E420E841EE58E070E060E08091710281
:1028F000909172020E94D90620E841EE58E070E003
:1029000060E080910501909106010E94D9068091B6
:102910007502909176020097D9F56091010170914E
:10292000020106E02EE045EB58E088E090E00E94CE
:10293000D90682E390E09093B3018093B2018EE1D7
:1029400090E09093B5018093B401EF2831F46DE5E8
:1029500071E082E097E00E94B10C8091B801909103
:10296000B90101969093B9018093B8018937910517
:102970000CF465CEB0927402A09273021092B90169
:102980001092B8015CCE37FFA5CF8FE790E080CEE4
:10299000019779F6609101017091020106E02EE045
:1029A00047EA58E0C2CF0E949A0A80E80E948F0A44
:1029B0002091010130910201882301F1223031057B
:1029C0000CF0C2C0EF2861F48091BA019091BB0174
:1029D000833091052CF401969093BB018093BA014A
:1029E0008091BA019091BB018A30910554F4280F6F
:1029F000391F309302012093010103C029333105AF
:102A00000CF38091010190910201181619060CF443
:102A1000A2C01092BB011092BA01B0920201A09222
:102A20000101C80165E070E00E94311B892B71F43F
:102A300080910101909102012091BA013091BB0176
:102A4000820F931F9093020180930101C8016CE3F0
:102A500070E00E94311B892B49F48091BC01909158
:102A6000BD0101969093BD018093BC0184E00E945A
:102A70008F0A882309F44BC0E6E3F2E090E080E09F
:102A80009C018A30910509F442C044810196359633
:102A90004111F6CF30936D0220936C02C29FF0017A
:102AA000C39FF00D1124EA5CFD4F8DE090E091830F
:102AB0008083809101019091020103969383828328
:102AC00081E08483809171008D7F809371001092EA
:102AD000B1018DED92E09093B0018093AF0190939E
:102AE000AE018093AD0182EC91E09093DE02809381
:102AF000DD0289E190E09093E0028093DF0280E0C4
:102B000090E89093E2028093E1020E945409E6E388
:102B1000CE2EE2E0DE2E28E632E076012E153F05CD
:102B200059F1D7018D919C9111978F3791050CF533
:102B300014964C9114974423E1F003968D939C9343
:102B4000F5E0EF0EF11CEACF8EEF9FEF9093BB0103
:102B50008093BA0156CFCA970CF463CF89E390E013
:102B600090930201809301011092BB011092BA016F
:102B700058CFF7011482E4CF10926D0210926C02CC
:102B800080916C0290916D020A970CF0A3C0109294
:102B90006B0210926A0240916A0250916B0280911E
:102BA0006C0290916D024A3051050CF08DC0C49FAB
:102BB000D001C59FB00D1124AC5FBD4F2D913C914C
:102BC0001197490162E0861A9108C89FF001C99FD8
:102BD000F00D1124EA5CFD4F608171818B010D5F66
:102BE0001F4F801691060CF060C0285F3F4F6217A0
:102BF00073070CF05AC012962D913C91D90112978F
:102C0000628173816A177B070CF44FC0285F3F4FC6
:102C1000621773070CF049C02481222309F445C0D0
:102C2000EEEBF1E030E020E0B9012A30310509F4A3
:102C300046C016812F5F3F4F37961111F5CF709325
:102C4000690260936802D69FF001D79FF00D1124AE
:102C5000E254FE4F21E0268391828082B383A283D7
:102C600015821482C49FF001C59FF00D1124EC5F02
:102C7000FD4F14821182108213821282C89F90012C
:102C8000C99F300D11242A5C3D4FD90114961C9226
:102C900089E998E00E94FC098091BC019091BD01F6
:102CA00044969093BD018093BC0180916A029091FB
:102CB0006B02019690936B0280936A026CCF309303
:102CC000690220936802CECF019690936D028093A3
:102CD0006C0256CF209171023091720280910501F1
:102CE000909106012238BFEF3B078CF0215031094B
:102CF00030937202209371028238EFEF9E070CF43A
:102D0000A7C0019790930601809305010CC097FF1F
:102D1000F8CF2FE730E030937202209371028238AF
:102D2000FFEF9F0774F71091B6019090B70110FD67
:102D300017C000E420E841EE58E070E060E08091C8
:102D40007102909172020E94D90620E841EE58E08B
:102D500070E060E080910501909106010E94D90623
:102D6000812F992D64E170E00E94311B892BC9F5F8
:102D7000E4E0F2E090E080E09C018A30910589F186
:102D80004481019635964111F7CF30936B02209321
:102D90006A02C29FF001C39FF00D1124EC5FFD4F4A
:102DA0008FE790E0918380830E94601A20916A02ED
:102DB00030916B02C29F8001C39F100D11240C5FE4
:102DC0001D4FA30192010E94CE1A6F5F7F4F8F4F5C
:102DD0009F4FD80113967C936E93129781E01496BF
:102DE0008C9310926B0210926A0280906A0290900B
:102DF0006B02BAE08B1691040CF042C0C89DF00142
:102E0000C99DF00D1124EC5FFD4F80819181893FB8
:102E10002FEF920764F12481222349F102979183D5
:102E20008083209175023091760221153105A9F435
:102E30006281738108E028E041E958E00E94D906E8
:102E40004FEF841A940A90926B0280926A02CDCF5F
:102E500037FF69CF8FE790E055CF2130310581F7FB
:102E60006281738108E028E049E858E0E7CFC89D17
:102E7000F001C99DF00D1124EC5FFD4F1482E0CFED
:102E800010926B0210926A029924939402E010E06F
:102E900080916A0290916B028A3091050CF047C0D4
:102EA000C89FF001C99FF00D1124EC5FFD4F808198
:102EB00091810197459750F582819381209101017D
:102EC00030910201A9014A5F5F4F84179507F4F41E
:102ED000089628173907D4F480917002811116C022
:102EE00030926F0220926E029092700280910301E4
:102EF00090910401823091059CF001979093040118
:102F0000809303018BE798E00E94FC0980916A029C
:102F100090916B02019690936B0280936A02B8CFF6
:102F2000109374020093730281E698E0EDCF8091D4
:102F30006E0290916F02181619060CF07EC0209157
:102F40007002222309F479C0019790936F02809355
:102F50006E02809175029091760220917002222378
:102F600009F47EC0009709F06BC08091B60180FD26
:102F70000CC0609101017091020106E02EE045EB6A
:102F800058E088E090E00E94D90680916E0290910E
:102F90006F02863791054CF0809173029091740214
:102FA000029719F081E00E94A60ACE14DF0409F40A
:102FB00062C0D60114968C911497882309F457C0E7
:102FC00012968D919C9113978034910508F04FC013
:102FD0002D913C91A9014E5F5F4F4238510508F099
:102FE00046C0A90137FF02C050E040E02D5F3F4FCF
:102FF0002138310514F020E830E0241BBC01677053
:10300000772731E001C0330F6A95EAF763E09595C1
:1030100087956A95E1F79695982F882797958795D4
:10302000480F591FFA01E351FD4F215000F18191E2
:10303000DF011197832B8C93F8CF1092700289CF08
:10304000019709F0A2CF8091B60180FD9ECF6091DB
:1030500001017091020106E02EE047EA58E091CFAD
:10306000009709F486CF019709F08FCFF0CFB5E034
:10307000CB0ED11C9ACF8AE090E090936D028093A2
:103080006C0210926902109268028091680290911D
:1030900069028A3091050CF069C0D89FF001D99F70
:1030A000F00D1124E254FE4F8681882311F16281D4
:1030B0007381808191810480F581E02DED30F105EF
:1030C00008F045C0E859F74E0CE02CE00C94591B71
:1030D00075188318861889188C188F1892189518E7
:1030E00098189B189E18A118A41849E458E00E944B
:1030F000D9068091680290916902019690936902C5
:1031000080936802C2CF41E358E0F1CF49E158E033
:10311000EECF41E058E0EBCF49EE57E0E8CF41ED8C
:1031200057E0E5CF49EB57E0E2CF41EA57E0DFCF88
:1031300049E857E0DCCF41E757E0D9CF49E557E010
:10314000D6CF41E457E0D3CF49E257E0D0CF9093B8
:10315000B3018093B2017093B5016093B40164E64A
:1031600071E082E097E00E94B10CC3CF8091B6017C
:1031700080FD18C0EEEBF1E022E0E430F20761F0F0
:10318000848195818C3091052CF4019695838483FC
:103190003796F2CF1682FCCF8AE090E090936902D6
:1031A0008093680285E590E09093FB068093FA0691
:1031B0009093F9068093F8060AE310E01093FD0659
:1031C0000093FC066AE671E08DEE96E00E94B10C79
:1031D0008EE690E09093FB068093FA069093F906B2
:1031E0008093F8061093FD060093FC06809103017E
:1031F000909104018230910509F44FC0833091050C
:1032000029F0019749F461E771E002C06FE671E0CF
:103210008DEE96E00E94B10C82E090E09093FB0668
:103220008093FA069093F9068093F8060AE310E07B
:103230001093FD060093FC0663E771E08DEE96E0C7
:103240000E94B10C8EE190E09093FB068093FA0609
:103250009093F9068093F8061093FD060093FC0600
:10326000C090BC01D090BD010D2C000CEE08FF08F1
:103270004AE0C701B601F7FE0DC06DE28DEE96E0A3
:103280000E94020C66277727CB016C197D098E09F5
:103290009F094AE00E94C00CD2C960E771E0B8CF34
:1032A0000E949A0AC80163E070E00E94311B892BDA
:1032B000B9F400E420E841EE58E070E060E080916D
:1032C0007102909172020E94D90620E841EE58E006
:1032D00070E060E080910501909106010E94D9069E
:1032E00088E290E09093B3018093B2018AE090E08D
:1032F0009093B5018093B40169E771E082E097E0B3
:103300000E94B10C82E190E09093B3018093B201EE
:1033100082E390E09093B5018093B40163E871E09B
:1033200082E097E00E94B10C80E20E948F0A88231D
:1033300009F45EC083E090E0909304018093030160
:103340001092700210926F0210926E0286E392E069
:1033500044E052E0EEEBF1E024E032E02E173F07CC
:1033600001F1DC0111961C921E9213961C921E9282
:10337000129714961C92DA0111961C921E921396C3
:103380001C921E92129714961C9211821082138224
:10339000128215821482168205964B5F5F4F379614
:1033A000DDCF8AE090E09093690280936802909369
:1033B0006D0280936C0290936B0280936A0210926C
:1033C000BD011092BC011092BB011092BA0180E2C3
:1033D00090E0909302018093010183EC98E00E94B9
:1033E000FC0983E090E0909374028093730227C9F4
:1033F00080E40E948F0A882309F421C91092740284
:10340000109273021CC922383F4F0CF080C9809182
:1034100071029091720297FF7AC98FE790E09093C2
:1034200006018093050173C98F929F92AF92BF925C
:10343000CF92DF92EF92FF92CF93DF93EC016881FE
:1034400079818A819B81611571058105910521F43E
:1034500064E279ED8BE597E02DE133EF41E050E058
:103460000E94CE1A49015A019B01AC01A7EAB1E4BE
:103470000E94ED1A6B017C01ACEEB4EFA501940142
:103480000E94FB1AC60ED71EE81EF91EF7FE06C0E4
:1034900081E0C81AD108E10880E8F80AC882D98218
:1034A000EA82FB82C701B6019F77DF91CF91FF903F
:1034B000EF90DF90CF90BF90AF909F908F90089546
:1034C0008F929F92AF92BF92CF92DF92EF92FF9234
:1034D0006091130170911401809115019091160172
:1034E000611571058105910521F464E279ED8BE5A3
:1034F00097E02DE133EF41E050E00E94CE1A490100
:103500005A019B01AC01A7EAB1E40E94ED1A6B01DC
:103510007C01ACEEB4EFA50194010E94FB1AC60E2B
:10352000D71EE81EF91EF7FE06C081E0C81AD108B2
:10353000E10880E8F80AC0921301D0921401E092E9
:103540001501F0921601C701B6019F77FF90EF9029
:10355000DF90CF90BF90AF909F908F900895609331
:10356000130170931401809315019093160108952F
:10357000F999FECF92BD81BDF89A992780B508953B
:10358000262FF999FECF1FBA92BD81BD20BD0FB67F
:10359000F894FA9AF99A0FBE01960895052E97FBB2
:1035A0001EF400940E94E51A57FD07D00E94001BEC
:1035B00007FC03D04EF40C94E51A509540953095D5
:1035C00021953F4F4F4F5F4F08959095809570958F
:1035D00061957F4F8F4F9F4F08950E94221BA59F9B
:1035E000900DB49F900DA49F800D911D11240895FE
:1035F000B7FF0C94ED1A0E94ED1A821B930B0895ED
:10360000A1E21A2EAA1BBB1BFD010DC0AA1FBB1FE6
:10361000EE1FFF1FA217B307E407F50720F0A21B58
:10362000B30BE40BF50B661F771F881F991F1A94C5
:1036300069F760957095809590959B01AC01BD01EF
:10364000CF010895A29FB001B39FC001A39F700D49
:10365000811D1124911DB29F700D811D1124911D9A
:103660000895AA1BBB1B51E107C0AA1FBB1FA617C9
:10367000B70710F0A61BB70B881F991F5A95A9F71B
:1036800080959095BC01CD01089597FB072E16F407
:10369000009407D077FD09D00E94311B07FC05D0AC
:1036A0003EF4909581959F4F0895709561957F4F59
:1036B0000895EE0FFF1F0590F491E02D0994F89402
:0236C000FFCF3A
:1036C20010200003007F00FFFFFFFF00E100000069
:1036D2000000000100000000C18081000000000025
:1036E200000000080A0B210816086708250843088D
:1036F20000000000020C1309AE0CAD0C000000002B
:10370200190A1309AE0CAD0C5350414345205348DE
:103712004F4F5445520050726573732000526561D9
:1037220064793F004552524F52004C494645006968
:1037320069690053434F52450047414D45204F565A
:103742004552004C3A20526574727920523A204D0B
:04375200656E75002B
:00000001FF
